{"project/contracts/SkillRegistry.sol":{"SkillRegistry":{"abi":[{"inputs":[],"stateMutability":"nonpayable","type":"constructor"},{"anonymous":false,"inputs":[{"indexed":false,"internalType":"enum SkillRegistry.SkillCategory","name":"category","type":"uint8"},{"indexed":false,"internalType":"uint256","name":"points","type":"uint256"}],"name":"SkillPointsUpdated","type":"event"},{"inputs":[{"internalType":"enum SkillRegistry.SkillCategory","name":"category","type":"uint8"},{"internalType":"uint256","name":"numHours","type":"uint256"},{"internalType":"uint256","name":"reputationMultiplier","type":"uint256"}],"name":"calculateSkillPoints","outputs":[{"internalType":"uint256","name":"","type":"uint256"}],"stateMutability":"view","type":"function"},{"inputs":[{"internalType":"enum SkillRegistry.SkillCategory","name":"category","type":"uint8"}],"name":"getPointsPerHour","outputs":[{"internalType":"uint256","name":"","type":"uint256"}],"stateMutability":"view","type":"function"},{"inputs":[{"internalType":"enum SkillRegistry.SkillCategory","name":"","type":"uint8"}],"name":"pointsPerHour","outputs":[{"internalType":"uint256","name":"","type":"uint256"}],"stateMutability":"view","type":"function"},{"inputs":[{"internalType":"address","name":"","type":"address"},{"internalType":"enum SkillRegistry.SkillCategory","name":"","type":"uint8"}],"name":"userSkillMultiplier","outputs":[{"internalType":"uint256","name":"","type":"uint256"}],"stateMutability":"view","type":"function"}],"evm":{"bytecode":{"linkReferences":{},"object":"608060405234801561000f575f80fd5b50600a5f80806003811115610027576100266100ff565b5b6003811115610039576100386100ff565b5b81526020019081526020015f208190555060145f8060016003811115610062576100616100ff565b5b6003811115610074576100736100ff565b5b81526020019081526020015f2081905550601e5f806002600381111561009d5761009c6100ff565b5b60038111156100af576100ae6100ff565b5b81526020019081526020015f208190555060325f806003808111156100d7576100d66100ff565b5b60038111156100e9576100e86100ff565b5b81526020019081526020015f208190555061012c565b7f4e487b71000000000000000000000000000000000000000000000000000000005f52602160045260245ffd5b6104a8806101395f395ff3fe608060405234801561000f575f80fd5b506004361061004a575f3560e01c8063832c3bbf1461004e578063cf8c3f861461007e578063e53084ca146100ae578063f9e0020c146100de575b5f80fd5b61006860048036038101906100639190610266565b61010e565b60405161007591906102bc565b60405180910390f35b610098600480360381019061009391906102d5565b61012e565b6040516100a591906102bc565b60405180910390f35b6100c860048036038101906100c391906102d5565b610142565b6040516100d591906102bc565b60405180910390f35b6100f860048036038101906100f3919061032a565b61017f565b60405161010591906102bc565b60405180910390f35b6001602052815f5260405f20602052805f5260405f205f91509150505481565b5f602052805f5260405f205f915090505481565b5f805f8360038111156101585761015761037a565b5b600381111561016a5761016961037a565b5b81526020019081526020015f20549050919050565b5f80835f808760038111156101975761019661037a565b5b60038111156101a9576101a861037a565b5b81526020019081526020015f20546101c191906103d4565b9050606483826101d191906103d4565b6101db9190610442565b9150509392505050565b5f80fd5b5f73ffffffffffffffffffffffffffffffffffffffff82169050919050565b5f610212826101e9565b9050919050565b61022281610208565b811461022c575f80fd5b50565b5f8135905061023d81610219565b92915050565b6004811061024f575f80fd5b50565b5f8135905061026081610243565b92915050565b5f806040838503121561027c5761027b6101e5565b5b5f6102898582860161022f565b925050602061029a85828601610252565b9150509250929050565b5f819050919050565b6102b6816102a4565b82525050565b5f6020820190506102cf5f8301846102ad565b92915050565b5f602082840312156102ea576102e96101e5565b5b5f6102f784828501610252565b91505092915050565b610309816102a4565b8114610313575f80fd5b50565b5f8135905061032481610300565b92915050565b5f805f60608486031215610341576103406101e5565b5b5f61034e86828701610252565b935050602061035f86828701610316565b925050604061037086828701610316565b9150509250925092565b7f4e487b71000000000000000000000000000000000000000000000000000000005f52602160045260245ffd5b7f4e487b71000000000000000000000000000000000000000000000000000000005f52601160045260245ffd5b5f6103de826102a4565b91506103e9836102a4565b92508282026103f7816102a4565b9150828204841483151761040e5761040d6103a7565b5b5092915050565b7f4e487b71000000000000000000000000000000000000000000000000000000005f52601260045260245ffd5b5f61044c826102a4565b9150610457836102a4565b92508261046757610466610415565b5b82820490509291505056fea26469706673582212207211e8a5c8042b773b1b9c71f22eddcf40af37d77c240b258a65330827f733a364736f6c63430008140033","opcodes":"PUSH1 0x80 PUSH1 0x40 MSTORE CALLVALUE DUP1 ISZERO PUSH2 0xF JUMPI PUSH0 DUP1 REVERT JUMPDEST POP PUSH1 0xA PUSH0 DUP1 DUP1 PUSH1 0x3 DUP2 GT ISZERO PUSH2 0x27 JUMPI PUSH2 0x26 PUSH2 0xFF JUMP JUMPDEST JUMPDEST PUSH1 0x3 DUP2 GT ISZERO PUSH2 0x39 JUMPI PUSH2 0x38 PUSH2 0xFF JUMP JUMPDEST JUMPDEST DUP2 MSTORE PUSH1 0x20 ADD SWAP1 DUP2 MSTORE PUSH1 0x20 ADD PUSH0 KECCAK256 DUP2 SWAP1 SSTORE POP PUSH1 0x14 PUSH0 DUP1 PUSH1 0x1 PUSH1 0x3 DUP2 GT ISZERO PUSH2 0x62 JUMPI PUSH2 0x61 PUSH2 0xFF JUMP JUMPDEST JUMPDEST PUSH1 0x3 DUP2 GT ISZERO PUSH2 0x74 JUMPI PUSH2 0x73 PUSH2 0xFF JUMP JUMPDEST JUMPDEST DUP2 MSTORE PUSH1 0x20 ADD SWAP1 DUP2 MSTORE PUSH1 0x20 ADD PUSH0 KECCAK256 DUP2 SWAP1 SSTORE POP PUSH1 0x1E PUSH0 DUP1 PUSH1 0x2 PUSH1 0x3 DUP2 GT ISZERO PUSH2 0x9D JUMPI PUSH2 0x9C PUSH2 0xFF JUMP JUMPDEST JUMPDEST PUSH1 0x3 DUP2 GT ISZERO PUSH2 0xAF JUMPI PUSH2 0xAE PUSH2 0xFF JUMP JUMPDEST JUMPDEST DUP2 MSTORE PUSH1 0x20 ADD SWAP1 DUP2 MSTORE PUSH1 0x20 ADD PUSH0 KECCAK256 DUP2 SWAP1 SSTORE POP PUSH1 0x32 PUSH0 DUP1 PUSH1 0x3 DUP1 DUP2 GT ISZERO PUSH2 0xD7 JUMPI PUSH2 0xD6 PUSH2 0xFF JUMP JUMPDEST JUMPDEST PUSH1 0x3 DUP2 GT ISZERO PUSH2 0xE9 JUMPI PUSH2 0xE8 PUSH2 0xFF JUMP JUMPDEST JUMPDEST DUP2 MSTORE PUSH1 0x20 ADD SWAP1 DUP2 MSTORE PUSH1 0x20 ADD PUSH0 KECCAK256 DUP2 SWAP1 SSTORE POP PUSH2 0x12C JUMP JUMPDEST PUSH32 0x4E487B7100000000000000000000000000000000000000000000000000000000 PUSH0 MSTORE PUSH1 0x21 PUSH1 0x4 MSTORE PUSH1 0x24 PUSH0 REVERT JUMPDEST PUSH2 0x4A8 DUP1 PUSH2 0x139 PUSH0 CODECOPY PUSH0 RETURN INVALID PUSH1 0x80 PUSH1 0x40 MSTORE CALLVALUE DUP1 ISZERO PUSH2 0xF JUMPI PUSH0 DUP1 REVERT JUMPDEST POP PUSH1 0x4 CALLDATASIZE LT PUSH2 0x4A JUMPI PUSH0 CALLDATALOAD PUSH1 0xE0 SHR DUP1 PUSH4 0x832C3BBF EQ PUSH2 0x4E JUMPI DUP1 PUSH4 0xCF8C3F86 EQ PUSH2 0x7E JUMPI DUP1 PUSH4 0xE53084CA EQ PUSH2 0xAE JUMPI DUP1 PUSH4 0xF9E0020C EQ PUSH2 0xDE JUMPI JUMPDEST PUSH0 DUP1 REVERT JUMPDEST PUSH2 0x68 PUSH1 0x4 DUP1 CALLDATASIZE SUB DUP2 ADD SWAP1 PUSH2 0x63 SWAP2 SWAP1 PUSH2 0x266 JUMP JUMPDEST PUSH2 0x10E JUMP JUMPDEST PUSH1 0x40 MLOAD PUSH2 0x75 SWAP2 SWAP1 PUSH2 0x2BC JUMP JUMPDEST PUSH1 0x40 MLOAD DUP1 SWAP2 SUB SWAP1 RETURN JUMPDEST PUSH2 0x98 PUSH1 0x4 DUP1 CALLDATASIZE SUB DUP2 ADD SWAP1 PUSH2 0x93 SWAP2 SWAP1 PUSH2 0x2D5 JUMP JUMPDEST PUSH2 0x12E JUMP JUMPDEST PUSH1 0x40 MLOAD PUSH2 0xA5 SWAP2 SWAP1 PUSH2 0x2BC JUMP JUMPDEST PUSH1 0x40 MLOAD DUP1 SWAP2 SUB SWAP1 RETURN JUMPDEST PUSH2 0xC8 PUSH1 0x4 DUP1 CALLDATASIZE SUB DUP2 ADD SWAP1 PUSH2 0xC3 SWAP2 SWAP1 PUSH2 0x2D5 JUMP JUMPDEST PUSH2 0x142 JUMP JUMPDEST PUSH1 0x40 MLOAD PUSH2 0xD5 SWAP2 SWAP1 PUSH2 0x2BC JUMP JUMPDEST PUSH1 0x40 MLOAD DUP1 SWAP2 SUB SWAP1 RETURN JUMPDEST PUSH2 0xF8 PUSH1 0x4 DUP1 CALLDATASIZE SUB DUP2 ADD SWAP1 PUSH2 0xF3 SWAP2 SWAP1 PUSH2 0x32A JUMP JUMPDEST PUSH2 0x17F JUMP JUMPDEST PUSH1 0x40 MLOAD PUSH2 0x105 SWAP2 SWAP1 PUSH2 0x2BC JUMP JUMPDEST PUSH1 0x40 MLOAD DUP1 SWAP2 SUB SWAP1 RETURN JUMPDEST PUSH1 0x1 PUSH1 0x20 MSTORE DUP2 PUSH0 MSTORE PUSH1 0x40 PUSH0 KECCAK256 PUSH1 0x20 MSTORE DUP1 PUSH0 MSTORE PUSH1 0x40 PUSH0 KECCAK256 PUSH0 SWAP2 POP SWAP2 POP POP SLOAD DUP2 JUMP JUMPDEST PUSH0 PUSH1 0x20 MSTORE DUP1 PUSH0 MSTORE PUSH1 0x40 PUSH0 KECCAK256 PUSH0 SWAP2 POP SWAP1 POP SLOAD DUP2 JUMP JUMPDEST PUSH0 DUP1 PUSH0 DUP4 PUSH1 0x3 DUP2 GT ISZERO PUSH2 0x158 JUMPI PUSH2 0x157 PUSH2 0x37A JUMP JUMPDEST JUMPDEST PUSH1 0x3 DUP2 GT ISZERO PUSH2 0x16A JUMPI PUSH2 0x169 PUSH2 0x37A JUMP JUMPDEST JUMPDEST DUP2 MSTORE PUSH1 0x20 ADD SWAP1 DUP2 MSTORE PUSH1 0x20 ADD PUSH0 KECCAK256 SLOAD SWAP1 POP SWAP2 SWAP1 POP JUMP JUMPDEST PUSH0 DUP1 DUP4 PUSH0 DUP1 DUP8 PUSH1 0x3 DUP2 GT ISZERO PUSH2 0x197 JUMPI PUSH2 0x196 PUSH2 0x37A JUMP JUMPDEST JUMPDEST PUSH1 0x3 DUP2 GT ISZERO PUSH2 0x1A9 JUMPI PUSH2 0x1A8 PUSH2 0x37A JUMP JUMPDEST JUMPDEST DUP2 MSTORE PUSH1 0x20 ADD SWAP1 DUP2 MSTORE PUSH1 0x20 ADD PUSH0 KECCAK256 SLOAD PUSH2 0x1C1 SWAP2 SWAP1 PUSH2 0x3D4 JUMP JUMPDEST SWAP1 POP PUSH1 0x64 DUP4 DUP3 PUSH2 0x1D1 SWAP2 SWAP1 PUSH2 0x3D4 JUMP JUMPDEST PUSH2 0x1DB SWAP2 SWAP1 PUSH2 0x442 JUMP JUMPDEST SWAP2 POP POP SWAP4 SWAP3 POP POP POP JUMP JUMPDEST PUSH0 DUP1 REVERT JUMPDEST PUSH0 PUSH20 0xFFFFFFFFFFFFFFFFFFFFFFFFFFFFFFFFFFFFFFFF DUP3 AND SWAP1 POP SWAP2 SWAP1 POP JUMP JUMPDEST PUSH0 PUSH2 0x212 DUP3 PUSH2 0x1E9 JUMP JUMPDEST SWAP1 POP SWAP2 SWAP1 POP JUMP JUMPDEST PUSH2 0x222 DUP2 PUSH2 0x208 JUMP JUMPDEST DUP2 EQ PUSH2 0x22C JUMPI PUSH0 DUP1 REVERT JUMPDEST POP JUMP JUMPDEST PUSH0 DUP2 CALLDATALOAD SWAP1 POP PUSH2 0x23D DUP2 PUSH2 0x219 JUMP JUMPDEST SWAP3 SWAP2 POP POP JUMP JUMPDEST PUSH1 0x4 DUP2 LT PUSH2 0x24F JUMPI PUSH0 DUP1 REVERT JUMPDEST POP JUMP JUMPDEST PUSH0 DUP2 CALLDATALOAD SWAP1 POP PUSH2 0x260 DUP2 PUSH2 0x243 JUMP JUMPDEST SWAP3 SWAP2 POP POP JUMP JUMPDEST PUSH0 DUP1 PUSH1 0x40 DUP4 DUP6 SUB SLT ISZERO PUSH2 0x27C JUMPI PUSH2 0x27B PUSH2 0x1E5 JUMP JUMPDEST JUMPDEST PUSH0 PUSH2 0x289 DUP6 DUP3 DUP7 ADD PUSH2 0x22F JUMP JUMPDEST SWAP3 POP POP PUSH1 0x20 PUSH2 0x29A DUP6 DUP3 DUP7 ADD PUSH2 0x252 JUMP JUMPDEST SWAP2 POP POP SWAP3 POP SWAP3 SWAP1 POP JUMP JUMPDEST PUSH0 DUP2 SWAP1 POP SWAP2 SWAP1 POP JUMP JUMPDEST PUSH2 0x2B6 DUP2 PUSH2 0x2A4 JUMP JUMPDEST DUP3 MSTORE POP POP JUMP JUMPDEST PUSH0 PUSH1 0x20 DUP3 ADD SWAP1 POP PUSH2 0x2CF PUSH0 DUP4 ADD DUP5 PUSH2 0x2AD JUMP JUMPDEST SWAP3 SWAP2 POP POP JUMP JUMPDEST PUSH0 PUSH1 0x20 DUP3 DUP5 SUB SLT ISZERO PUSH2 0x2EA JUMPI PUSH2 0x2E9 PUSH2 0x1E5 JUMP JUMPDEST JUMPDEST PUSH0 PUSH2 0x2F7 DUP5 DUP3 DUP6 ADD PUSH2 0x252 JUMP JUMPDEST SWAP2 POP POP SWAP3 SWAP2 POP POP JUMP JUMPDEST PUSH2 0x309 DUP2 PUSH2 0x2A4 JUMP JUMPDEST DUP2 EQ PUSH2 0x313 JUMPI PUSH0 DUP1 REVERT JUMPDEST POP JUMP JUMPDEST PUSH0 DUP2 CALLDATALOAD SWAP1 POP PUSH2 0x324 DUP2 PUSH2 0x300 JUMP JUMPDEST SWAP3 SWAP2 POP POP JUMP JUMPDEST PUSH0 DUP1 PUSH0 PUSH1 0x60 DUP5 DUP7 SUB SLT ISZERO PUSH2 0x341 JUMPI PUSH2 0x340 PUSH2 0x1E5 JUMP JUMPDEST JUMPDEST PUSH0 PUSH2 0x34E DUP7 DUP3 DUP8 ADD PUSH2 0x252 JUMP JUMPDEST SWAP4 POP POP PUSH1 0x20 PUSH2 0x35F DUP7 DUP3 DUP8 ADD PUSH2 0x316 JUMP JUMPDEST SWAP3 POP POP PUSH1 0x40 PUSH2 0x370 DUP7 DUP3 DUP8 ADD PUSH2 0x316 JUMP JUMPDEST SWAP2 POP POP SWAP3 POP SWAP3 POP SWAP3 JUMP JUMPDEST PUSH32 0x4E487B7100000000000000000000000000000000000000000000000000000000 PUSH0 MSTORE PUSH1 0x21 PUSH1 0x4 MSTORE PUSH1 0x24 PUSH0 REVERT JUMPDEST PUSH32 0x4E487B7100000000000000000000000000000000000000000000000000000000 PUSH0 MSTORE PUSH1 0x11 PUSH1 0x4 MSTORE PUSH1 0x24 PUSH0 REVERT JUMPDEST PUSH0 PUSH2 0x3DE DUP3 PUSH2 0x2A4 JUMP JUMPDEST SWAP2 POP PUSH2 0x3E9 DUP4 PUSH2 0x2A4 JUMP JUMPDEST SWAP3 POP DUP3 DUP3 MUL PUSH2 0x3F7 DUP2 PUSH2 0x2A4 JUMP JUMPDEST SWAP2 POP DUP3 DUP3 DIV DUP5 EQ DUP4 ISZERO OR PUSH2 0x40E JUMPI PUSH2 0x40D PUSH2 0x3A7 JUMP JUMPDEST JUMPDEST POP SWAP3 SWAP2 POP POP JUMP JUMPDEST PUSH32 0x4E487B7100000000000000000000000000000000000000000000000000000000 PUSH0 MSTORE PUSH1 0x12 PUSH1 0x4 MSTORE PUSH1 0x24 PUSH0 REVERT JUMPDEST PUSH0 PUSH2 0x44C DUP3 PUSH2 0x2A4 JUMP JUMPDEST SWAP2 POP PUSH2 0x457 DUP4 PUSH2 0x2A4 JUMP JUMPDEST SWAP3 POP DUP3 PUSH2 0x467 JUMPI PUSH2 0x466 PUSH2 0x415 JUMP JUMPDEST JUMPDEST DUP3 DUP3 DIV SWAP1 POP SWAP3 SWAP2 POP POP JUMP INVALID LOG2 PUSH5 0x6970667358 0x22 SLT KECCAK256 PUSH19 0x11E8A5C8042B773B1B9C71F22EDDCF40AF37D7 PUSH29 0x240B258A65330827F733A364736F6C6343000814003300000000000000 "},"methodIdentifiers":{"calculateSkillPoints(uint8,uint256,uint256)":"f9e0020c","getPointsPerHour(uint8)":"e53084ca","pointsPerHour(uint8)":"cf8c3f86","userSkillMultiplier(address,uint8)":"832c3bbf"}}}}}