{
  "_format": "hh3-artifact-1",
  "contractName": "TimeBankV2",
  "sourceName": "contracts/TimeBankV2.sol",
  "abi": [
    {
      "inputs": [
        {
          "internalType": "address",
          "name": "_iouToken",
          "type": "address"
        },
        {
          "internalType": "address",
          "name": "_reputation",
          "type": "address"
        },
        {
          "internalType": "address",
          "name": "_skillRegistry",
          "type": "address"
        }
      ],
      "stateMutability": "nonpayable",
      "type": "constructor"
    },
    {
      "anonymous": false,
      "inputs": [
        {
          "indexed": true,
          "internalType": "uint256",
          "name": "tokenId",
          "type": "uint256"
        },
        {
          "indexed": false,
          "internalType": "address",
          "name": "creator",
          "type": "address"
        },
        {
          "indexed": false,
          "internalType": "address",
          "name": "holder",
          "type": "address"
        }
      ],
      "name": "BothConfirmed",
      "type": "event"
    },
    {
      "anonymous": false,
      "inputs": [
        {
          "indexed": true,
          "internalType": "uint256",
          "name": "tokenId",
          "type": "uint256"
        },
        {
          "indexed": true,
          "internalType": "address",
          "name": "initiator",
          "type": "address"
        }
      ],
      "name": "DisputeFiled",
      "type": "event"
    },
    {
      "anonymous": false,
      "inputs": [
        {
          "indexed": true,
          "internalType": "uint256",
          "name": "tokenId",
          "type": "uint256"
        },
        {
          "indexed": false,
          "internalType": "address",
          "name": "winner",
          "type": "address"
        },
        {
          "indexed": false,
          "internalType": "address",
          "name": "loser",
          "type": "address"
        }
      ],
      "name": "DisputeResolved",
      "type": "event"
    },
    {
      "anonymous": false,
      "inputs": [
        {
          "indexed": true,
          "internalType": "uint256",
          "name": "tokenId",
          "type": "uint256"
        },
        {
          "indexed": true,
          "internalType": "address",
          "name": "holder",
          "type": "address"
        },
        {
          "indexed": false,
          "internalType": "uint256",
          "name": "collateral",
          "type": "uint256"
        }
      ],
      "name": "IOUAccepted",
      "type": "event"
    },
    {
      "anonymous": false,
      "inputs": [
        {
          "indexed": true,
          "internalType": "uint256",
          "name": "tokenId",
          "type": "uint256"
        },
        {
          "indexed": true,
          "internalType": "address",
          "name": "creator",
          "type": "address"
        },
        {
          "indexed": false,
          "internalType": "uint256",
          "name": "collateral",
          "type": "uint256"
        }
      ],
      "name": "IOUCreated",
      "type": "event"
    },
    {
      "inputs": [],
      "name": "COLLATERAL_PER_HOUR",
      "outputs": [
        {
          "internalType": "uint256",
          "name": "",
          "type": "uint256"
        }
      ],
      "stateMutability": "view",
      "type": "function"
    },
    {
      "inputs": [],
      "name": "REPUTATION_PENALTY",
      "outputs": [
        {
          "internalType": "uint256",
          "name": "",
          "type": "uint256"
        }
      ],
      "stateMutability": "view",
      "type": "function"
    },
    {
      "inputs": [],
      "name": "REPUTATION_REWARD",
      "outputs": [
        {
          "internalType": "uint256",
          "name": "",
          "type": "uint256"
        }
      ],
      "stateMutability": "view",
      "type": "function"
    },
    {
      "inputs": [
        {
          "internalType": "uint256",
          "name": "tokenId",
          "type": "uint256"
        }
      ],
      "name": "acceptIOU",
      "outputs": [],
      "stateMutability": "payable",
      "type": "function"
    },
    {
      "inputs": [],
      "name": "admin",
      "outputs": [
        {
          "internalType": "address",
          "name": "",
          "type": "address"
        }
      ],
      "stateMutability": "view",
      "type": "function"
    },
    {
      "inputs": [
        {
          "internalType": "address",
          "name": "newAdmin",
          "type": "address"
        }
      ],
      "name": "changeAdmin",
      "outputs": [],
      "stateMutability": "nonpayable",
      "type": "function"
    },
    {
      "inputs": [
        {
          "internalType": "uint256",
          "name": "tokenId",
          "type": "uint256"
        },
        {
          "internalType": "bool",
          "name": "isCreator",
          "type": "bool"
        }
      ],
      "name": "confirmCompletion",
      "outputs": [],
      "stateMutability": "nonpayable",
      "type": "function"
    },
    {
      "inputs": [
        {
          "internalType": "string",
          "name": "workDescription",
          "type": "string"
        },
        {
          "internalType": "uint256",
          "name": "numHours",
          "type": "uint256"
        },
        {
          "internalType": "enum SkillRegistry.SkillCategory",
          "name": "skillCategory",
          "type": "uint8"
        },
        {
          "internalType": "uint256",
          "name": "deadlineDays",
          "type": "uint256"
        }
      ],
      "name": "createIOU",
      "outputs": [
        {
          "internalType": "uint256",
          "name": "",
          "type": "uint256"
        }
      ],
      "stateMutability": "payable",
      "type": "function"
    },
    {
      "inputs": [
        {
          "internalType": "uint256",
          "name": "tokenId",
          "type": "uint256"
        }
      ],
      "name": "fileDispute",
      "outputs": [],
      "stateMutability": "nonpayable",
      "type": "function"
    },
    {
      "inputs": [
        {
          "internalType": "uint256",
          "name": "tokenId",
          "type": "uint256"
        }
      ],
      "name": "getIOUDetails",
      "outputs": [
        {
          "components": [
            {
              "internalType": "uint256",
              "name": "tokenId",
              "type": "uint256"
            },
            {
              "internalType": "address",
              "name": "creator",
              "type": "address"
            },
            {
              "internalType": "address",
              "name": "holder",
              "type": "address"
            },
            {
              "internalType": "uint256",
              "name": "creatorCollateral",
              "type": "uint256"
            },
            {
              "internalType": "uint256",
              "name": "holderCollateral",
              "type": "uint256"
            },
            {
              "internalType": "bool",
              "name": "creatorConfirmed",
              "type": "bool"
            },
            {
              "internalType": "bool",
              "name": "holderConfirmed",
              "type": "bool"
            },
            {
              "internalType": "bool",
              "name": "disputed",
              "type": "bool"
            },
            {
              "internalType": "address",
              "name": "disputeInitiator",
              "type": "address"
            },
            {
              "internalType": "bool",
              "name": "resolved",
              "type": "bool"
            },
            {
              "internalType": "uint256",
              "name": "createdAt",
              "type": "uint256"
            }
          ],
          "internalType": "struct TimeBankV2.IOUDetails",
          "name": "",
          "type": "tuple"
        }
      ],
      "stateMutability": "view",
      "type": "function"
    },
    {
      "inputs": [
        {
          "internalType": "uint256",
          "name": "",
          "type": "uint256"
        }
      ],
      "name": "iouDetails",
      "outputs": [
        {
          "internalType": "uint256",
          "name": "tokenId",
          "type": "uint256"
        },
        {
          "internalType": "address",
          "name": "creator",
          "type": "address"
        },
        {
          "internalType": "address",
          "name": "holder",
          "type": "address"
        },
        {
          "internalType": "uint256",
          "name": "creatorCollateral",
          "type": "uint256"
        },
        {
          "internalType": "uint256",
          "name": "holderCollateral",
          "type": "uint256"
        },
        {
          "internalType": "bool",
          "name": "creatorConfirmed",
          "type": "bool"
        },
        {
          "internalType": "bool",
          "name": "holderConfirmed",
          "type": "bool"
        },
        {
          "internalType": "bool",
          "name": "disputed",
          "type": "bool"
        },
        {
          "internalType": "address",
          "name": "disputeInitiator",
          "type": "address"
        },
        {
          "internalType": "bool",
          "name": "resolved",
          "type": "bool"
        },
        {
          "internalType": "uint256",
          "name": "createdAt",
          "type": "uint256"
        }
      ],
      "stateMutability": "view",
      "type": "function"
    },
    {
      "inputs": [],
      "name": "iouToken",
      "outputs": [
        {
          "internalType": "contract IOUToken",
          "name": "",
          "type": "address"
        }
      ],
      "stateMutability": "view",
      "type": "function"
    },
    {
      "inputs": [],
      "name": "reputation",
      "outputs": [
        {
          "internalType": "contract Reputation",
          "name": "",
          "type": "address"
        }
      ],
      "stateMutability": "view",
      "type": "function"
    },
    {
      "inputs": [
        {
          "internalType": "uint256",
          "name": "tokenId",
          "type": "uint256"
        },
        {
          "internalType": "bool",
          "name": "initiatorIsRight",
          "type": "bool"
        }
      ],
      "name": "resolveDispute",
      "outputs": [],
      "stateMutability": "nonpayable",
      "type": "function"
    },
    {
      "inputs": [],
      "name": "skillRegistry",
      "outputs": [
        {
          "internalType": "contract SkillRegistry",
          "name": "",
          "type": "address"
        }
      ],
      "stateMutability": "view",
      "type": "function"
    },
    {
      "stateMutability": "payable",
      "type": "receive"
    }
  ],
  "bytecode": "0x608060405234801562000010575f80fd5b5060405162003109380380620031098339818101604052810190620000369190620001a3565b825f806101000a81548173ffffffffffffffffffffffffffffffffffffffff021916908373ffffffffffffffffffffffffffffffffffffffff1602179055508160015f6101000a81548173ffffffffffffffffffffffffffffffffffffffff021916908373ffffffffffffffffffffffffffffffffffffffff1602179055508060025f6101000a81548173ffffffffffffffffffffffffffffffffffffffff021916908373ffffffffffffffffffffffffffffffffffffffff1602179055503360035f6101000a81548173ffffffffffffffffffffffffffffffffffffffff021916908373ffffffffffffffffffffffffffffffffffffffff160217905550505050620001fc565b5f80fd5b5f73ffffffffffffffffffffffffffffffffffffffff82169050919050565b5f6200016d8262000142565b9050919050565b6200017f8162000161565b81146200018a575f80fd5b50565b5f815190506200019d8162000174565b92915050565b5f805f60608486031215620001bd57620001bc6200013e565b5b5f620001cc868287016200018d565b9350506020620001df868287016200018d565b9250506040620001f2868287016200018d565b9150509250925092565b612eff806200020a5f395ff3fe6080604052600436106100eb575f3560e01c80638e34b19411610089578063c52164c611610058578063c52164c6146102c6578063cf458f5f146102f0578063d9cbef6c14610336578063f851a44014610360576100f2565b80638e34b194146102105780638f2839701461023a5780639078f5e414610262578063aee8fde01461029e576100f2565b8063253895a6116100c5578063253895a61461017857806334b25ee2146101a25780635f88a61b146101ca57806389fa36cc146101f4576100f2565b80630d0ce79e146100f65780630f23c83c14610126578063168c39e814610150576100f2565b366100f257005b5f80fd5b610110600480360381019061010b9190612185565b61038a565b60405161011d9190612214565b60405180910390f35b348015610131575f80fd5b5061013a6108f8565b60405161014791906122a7565b60405180910390f35b34801561015b575f80fd5b50610176600480360381019061017191906122f5565b61091d565b005b348015610183575f80fd5b5061018c610b7b565b6040516101999190612214565b60405180910390f35b3480156101ad575f80fd5b506101c860048036038101906101c391906122f5565b610b87565b005b3480156101d5575f80fd5b506101de6112ff565b6040516101eb9190612214565b60405180910390f35b61020e60048036038101906102099190612333565b611304565b005b34801561021b575f80fd5b506102246115a6565b604051610231919061237e565b60405180910390f35b348015610245575f80fd5b50610260600480360381019061025b91906123d2565b6115c9565b005b34801561026d575f80fd5b5061028860048036038101906102839190612333565b61169b565b6040516102959190612509565b60405180910390f35b3480156102a9575f80fd5b506102c460048036038101906102bf9190612333565b611859565b005b3480156102d1575f80fd5b506102da611aa3565b6040516102e79190612543565b60405180910390f35b3480156102fb575f80fd5b5061031660048036038101906103119190612333565b611ac8565b60405161032d9b9a9998979695949392919061257a565b60405180910390f35b348015610341575f80fd5b5061034a611baf565b6040516103579190612214565b60405180910390f35b34801561036b575f80fd5b50610374611bb4565b6040516103819190612623565b60405180910390f35b5f8084116103cd576040517f08c379a00000000000000000000000000000000000000000000000000000000081526004016103c490612696565b60405180910390fd5b5f821180156103de575061016d8211155b61041d576040517f08c379a0000000000000000000000000000000000000000000000000000000008152600401610414906126fe565b60405180910390fd5b5f67016345785d8a0000856104329190612749565b905080341015610477576040517f08c379a000000000000000000000000000000000000000000000000000000000815260040161046e906127d4565b60405180910390fd5b5f60015f9054906101000a900473ffffffffffffffffffffffffffffffffffffffff1673ffffffffffffffffffffffffffffffffffffffff1663b107e88c336040518263ffffffff1660e01b81526004016104d29190612623565b602060405180830381865afa1580156104ed573d5f803e3d5ffd5b505050506040513d601f19601f820116820180604052508101906105119190612806565b90505f60025f9054906101000a900473ffffffffffffffffffffffffffffffffffffffff1673ffffffffffffffffffffffffffffffffffffffff1663f9e0020c8789856040518463ffffffff1660e01b8152600401610572939291906128a4565b602060405180830381865afa15801561058d573d5f803e3d5ffd5b505050506040513d601f19601f820116820180604052508101906105b19190612806565b90505f62015180866105c39190612749565b426105ce91906128d9565b90505f805f9054906101000a900473ffffffffffffffffffffffffffffffffffffffff1673ffffffffffffffffffffffffffffffffffffffff166326b5d3a4338c86868a6040518663ffffffff1660e01b8152600401610632959493929190612976565b6020604051808303815f875af115801561064e573d5f803e3d5ffd5b505050506040513d601f19601f820116820180604052508101906106729190612806565b90506040518061016001604052808281526020013373ffffffffffffffffffffffffffffffffffffffff1681526020015f73ffffffffffffffffffffffffffffffffffffffff1681526020013481526020015f81526020015f151581526020015f151581526020015f151581526020015f73ffffffffffffffffffffffffffffffffffffffff1681526020015f151581526020014281525060045f8381526020019081526020015f205f820151815f01556020820151816001015f6101000a81548173ffffffffffffffffffffffffffffffffffffffff021916908373ffffffffffffffffffffffffffffffffffffffff1602179055506040820151816002015f6101000a81548173ffffffffffffffffffffffffffffffffffffffff021916908373ffffffffffffffffffffffffffffffffffffffff160217905550606082015181600301556080820151816004015560a0820151816005015f6101000a81548160ff02191690831515021790555060c08201518160050160016101000a81548160ff02191690831515021790555060e08201518160050160026101000a81548160ff0219169083151502179055506101008201518160050160036101000a81548173ffffffffffffffffffffffffffffffffffffffff021916908373ffffffffffffffffffffffffffffffffffffffff1602179055506101208201518160050160176101000a81548160ff02191690831515021790555061014082015181600601559050503373ffffffffffffffffffffffffffffffffffffffff16817f5f5862fccfe430d5305bdeebf2dce9a10afa6aa6a40d88160963f749a9748be5346040516108e09190612214565b60405180910390a38095505050505050949350505050565b60025f9054906101000a900473ffffffffffffffffffffffffffffffffffffffff1681565b5f60045f8481526020019081526020015f2090508060050160179054906101000a900460ff1615610983576040517f08c379a000000000000000000000000000000000000000000000000000000000815260040161097a90612a18565b60405180910390fd5b8060050160029054906101000a900460ff16156109d5576040517f08c379a00000000000000000000000000000000000000000000000000000000081526004016109cc90612a80565b60405180910390fd5b8115610a8d57806001015f9054906101000a900473ffffffffffffffffffffffffffffffffffffffff1673ffffffffffffffffffffffffffffffffffffffff163373ffffffffffffffffffffffffffffffffffffffff1614610a6c576040517f08c379a0000000000000000000000000000000000000000000000000000000008152600401610a6390612ae8565b60405180910390fd5b6001816005015f6101000a81548160ff021916908315150217905550610b3c565b806002015f9054906101000a900473ffffffffffffffffffffffffffffffffffffffff1673ffffffffffffffffffffffffffffffffffffffff163373ffffffffffffffffffffffffffffffffffffffff1614610b1e576040517f08c379a0000000000000000000000000000000000000000000000000000000008152600401610b1590612b50565b60405180910390fd5b60018160050160016101000a81548160ff0219169083151502179055505b806005015f9054906101000a900460ff168015610b6757508060050160019054906101000a900460ff165b15610b7657610b7583611bd9565b5b505050565b67016345785d8a000081565b60035f9054906101000a900473ffffffffffffffffffffffffffffffffffffffff1673ffffffffffffffffffffffffffffffffffffffff163373ffffffffffffffffffffffffffffffffffffffff1614610c16576040517f08c379a0000000000000000000000000000000000000000000000000000000008152600401610c0d90612bb8565b60405180910390fd5b5f60045f8481526020019081526020015f2090508060050160029054906101000a900460ff16610c7b576040517f08c379a0000000000000000000000000000000000000000000000000000000008152600401610c7290612c20565b60405180910390fd5b8060050160179054906101000a900460ff1615610ccd576040517f08c379a0000000000000000000000000000000000000000000000000000000008152600401610cc490612a18565b60405180910390fd5b5f808315610f3b578260050160039054906101000a900473ffffffffffffffffffffffffffffffffffffffff169150826001015f9054906101000a900473ffffffffffffffffffffffffffffffffffffffff1673ffffffffffffffffffffffffffffffffffffffff168360050160039054906101000a900473ffffffffffffffffffffffffffffffffffffffff1673ffffffffffffffffffffffffffffffffffffffff1614610d9f57826001015f9054906101000a900473ffffffffffffffffffffffffffffffffffffffff16610dc4565b826002015f9054906101000a900473ffffffffffffffffffffffffffffffffffffffff165b90508173ffffffffffffffffffffffffffffffffffffffff166108fc84600401548560030154610df491906128d9565b90811502906040515f60405180830381858888f19350505050158015610e1c573d5f803e3d5ffd5b5060015f9054906101000a900473ffffffffffffffffffffffffffffffffffffffff1673ffffffffffffffffffffffffffffffffffffffff1663ff370a4083600160146040518463ffffffff1660e01b8152600401610e7d93929190612c3e565b5f604051808303815f87803b158015610e94575f80fd5b505af1158015610ea6573d5f803e3d5ffd5b5050505060015f9054906101000a900473ffffffffffffffffffffffffffffffffffffffff1673ffffffffffffffffffffffffffffffffffffffff1663ff370a40825f60146040518463ffffffff1660e01b8152600401610f0993929190612c3e565b5f604051808303815f87803b158015610f20575f80fd5b505af1158015610f32573d5f803e3d5ffd5b5050505061121c565b826001015f9054906101000a900473ffffffffffffffffffffffffffffffffffffffff1673ffffffffffffffffffffffffffffffffffffffff168360050160039054906101000a900473ffffffffffffffffffffffffffffffffffffffff1673ffffffffffffffffffffffffffffffffffffffff1614610fde57826001015f9054906101000a900473ffffffffffffffffffffffffffffffffffffffff16611003565b826002015f9054906101000a900473ffffffffffffffffffffffffffffffffffffffff165b91508260050160039054906101000a900473ffffffffffffffffffffffffffffffffffffffff169050826001015f9054906101000a900473ffffffffffffffffffffffffffffffffffffffff1673ffffffffffffffffffffffffffffffffffffffff166108fc846003015490811502906040515f60405180830381858888f19350505050158015611096573d5f803e3d5ffd5b50826002015f9054906101000a900473ffffffffffffffffffffffffffffffffffffffff1673ffffffffffffffffffffffffffffffffffffffff166108fc846004015490811502906040515f60405180830381858888f19350505050158015611101573d5f803e3d5ffd5b5060015f9054906101000a900473ffffffffffffffffffffffffffffffffffffffff1673ffffffffffffffffffffffffffffffffffffffff1663ff370a40825f60146040518463ffffffff1660e01b815260040161116193929190612c3e565b5f604051808303815f87803b158015611178575f80fd5b505af115801561118a573d5f803e3d5ffd5b5050505060015f9054906101000a900473ffffffffffffffffffffffffffffffffffffffff1673ffffffffffffffffffffffffffffffffffffffff1663ff370a4083600160146040518463ffffffff1660e01b81526004016111ee93929190612c3e565b5f604051808303815f87803b158015611205575f80fd5b505af1158015611217573d5f803e3d5ffd5b505050505b60018360050160176101000a81548160ff0219169083151502179055505f8054906101000a900473ffffffffffffffffffffffffffffffffffffffff1673ffffffffffffffffffffffffffffffffffffffff1663cac5c512866040518263ffffffff1660e01b81526004016112919190612214565b5f604051808303815f87803b1580156112a8575f80fd5b505af11580156112ba573d5f803e3d5ffd5b50505050847fe1a7c74b62f66920be8ea5c50242d3b2093a1c3ab2262aed114fd0ffdc5e524383836040516112f0929190612c73565b60405180910390a25050505050565b601481565b5f60045f8381526020019081526020015f2090505f73ffffffffffffffffffffffffffffffffffffffff16816001015f9054906101000a900473ffffffffffffffffffffffffffffffffffffffff1673ffffffffffffffffffffffffffffffffffffffff16036113a9576040517f08c379a00000000000000000000000000000000000000000000000000000000081526004016113a090612ce4565b60405180910390fd5b5f73ffffffffffffffffffffffffffffffffffffffff16816002015f9054906101000a900473ffffffffffffffffffffffffffffffffffffffff1673ffffffffffffffffffffffffffffffffffffffff161461143a576040517f08c379a000000000000000000000000000000000000000000000000000000000815260040161143190612d4c565b60405180910390fd5b8060030154341015611481576040517f08c379a000000000000000000000000000000000000000000000000000000000815260040161147890612db4565b60405180910390fd5b33816002015f6101000a81548173ffffffffffffffffffffffffffffffffffffffff021916908373ffffffffffffffffffffffffffffffffffffffff1602179055503481600401819055505f8054906101000a900473ffffffffffffffffffffffffffffffffffffffff1673ffffffffffffffffffffffffffffffffffffffff1663861b559e83336040518363ffffffff1660e01b8152600401611526929190612dd2565b5f604051808303815f87803b15801561153d575f80fd5b505af115801561154f573d5f803e3d5ffd5b505050503373ffffffffffffffffffffffffffffffffffffffff16827f3a19c6645d771c6845d003e5ef0d15fdf99189bbd056a1cb8de977ac9b43a9463460405161159a9190612214565b60405180910390a35050565b5f8054906101000a900473ffffffffffffffffffffffffffffffffffffffff1681565b60035f9054906101000a900473ffffffffffffffffffffffffffffffffffffffff1673ffffffffffffffffffffffffffffffffffffffff163373ffffffffffffffffffffffffffffffffffffffff1614611658576040517f08c379a000000000000000000000000000000000000000000000000000000000815260040161164f90612bb8565b60405180910390fd5b8060035f6101000a81548173ffffffffffffffffffffffffffffffffffffffff021916908373ffffffffffffffffffffffffffffffffffffffff16021790555050565b6116a3611f49565b60045f8381526020019081526020015f20604051806101600160405290815f8201548152602001600182015f9054906101000a900473ffffffffffffffffffffffffffffffffffffffff1673ffffffffffffffffffffffffffffffffffffffff1673ffffffffffffffffffffffffffffffffffffffff168152602001600282015f9054906101000a900473ffffffffffffffffffffffffffffffffffffffff1673ffffffffffffffffffffffffffffffffffffffff1673ffffffffffffffffffffffffffffffffffffffff1681526020016003820154815260200160048201548152602001600582015f9054906101000a900460ff161515151581526020016005820160019054906101000a900460ff161515151581526020016005820160029054906101000a900460ff161515151581526020016005820160039054906101000a900473ffffffffffffffffffffffffffffffffffffffff1673ffffffffffffffffffffffffffffffffffffffff1673ffffffffffffffffffffffffffffffffffffffff1681526020016005820160179054906101000a900460ff161515151581526020016006820154815250509050919050565b5f60045f8381526020019081526020015f2090508060050160179054906101000a900460ff16156118bf576040517f08c379a00000000000000000000000000000000000000000000000000000000081526004016118b690612a18565b60405180910390fd5b8060050160029054906101000a900460ff1615611911576040517f08c379a000000000000000000000000000000000000000000000000000000000815260040161190890612e43565b60405180910390fd5b806001015f9054906101000a900473ffffffffffffffffffffffffffffffffffffffff1673ffffffffffffffffffffffffffffffffffffffff163373ffffffffffffffffffffffffffffffffffffffff1614806119bc5750806002015f9054906101000a900473ffffffffffffffffffffffffffffffffffffffff1673ffffffffffffffffffffffffffffffffffffffff163373ffffffffffffffffffffffffffffffffffffffff16145b6119fb576040517f08c379a00000000000000000000000000000000000000000000000000000000081526004016119f290612eab565b60405180910390fd5b60018160050160026101000a81548160ff021916908315150217905550338160050160036101000a81548173ffffffffffffffffffffffffffffffffffffffff021916908373ffffffffffffffffffffffffffffffffffffffff1602179055503373ffffffffffffffffffffffffffffffffffffffff16827f72a6353d77b5bd8b598b7c1cf4e05f46b3bd0ae3879bd711817e21189b4be37a60405160405180910390a35050565b60015f9054906101000a900473ffffffffffffffffffffffffffffffffffffffff1681565b6004602052805f5260405f205f91509050805f015490806001015f9054906101000a900473ffffffffffffffffffffffffffffffffffffffff1690806002015f9054906101000a900473ffffffffffffffffffffffffffffffffffffffff1690806003015490806004015490806005015f9054906101000a900460ff16908060050160019054906101000a900460ff16908060050160029054906101000a900460ff16908060050160039054906101000a900473ffffffffffffffffffffffffffffffffffffffff16908060050160179054906101000a900460ff1690806006015490508b565b601481565b60035f9054906101000a900473ffffffffffffffffffffffffffffffffffffffff1681565b5f60045f8381526020019081526020015f209050806001015f9054906101000a900473ffffffffffffffffffffffffffffffffffffffff1673ffffffffffffffffffffffffffffffffffffffff166108fc826003015490811502906040515f60405180830381858888f19350505050158015611c57573d5f803e3d5ffd5b50806002015f9054906101000a900473ffffffffffffffffffffffffffffffffffffffff1673ffffffffffffffffffffffffffffffffffffffff166108fc826004015490811502906040515f60405180830381858888f19350505050158015611cc2573d5f803e3d5ffd5b5060015f9054906101000a900473ffffffffffffffffffffffffffffffffffffffff1673ffffffffffffffffffffffffffffffffffffffff1663ff370a40826001015f9054906101000a900473ffffffffffffffffffffffffffffffffffffffff16600160146040518463ffffffff1660e01b8152600401611d4693929190612c3e565b5f604051808303815f87803b158015611d5d575f80fd5b505af1158015611d6f573d5f803e3d5ffd5b5050505060015f9054906101000a900473ffffffffffffffffffffffffffffffffffffffff1673ffffffffffffffffffffffffffffffffffffffff1663ff370a40826002015f9054906101000a900473ffffffffffffffffffffffffffffffffffffffff16600160146040518463ffffffff1660e01b8152600401611df693929190612c3e565b5f604051808303815f87803b158015611e0d575f80fd5b505af1158015611e1f573d5f803e3d5ffd5b5050505060018160050160176101000a81548160ff0219169083151502179055505f8054906101000a900473ffffffffffffffffffffffffffffffffffffffff1673ffffffffffffffffffffffffffffffffffffffff1663cac5c512836040518263ffffffff1660e01b8152600401611e989190612214565b5f604051808303815f87803b158015611eaf575f80fd5b505af1158015611ec1573d5f803e3d5ffd5b50505050817f9ef91ceccc4ef5e7fdbece8e3c7bc905036589d706fc197e27b68b1fcfed12bd826001015f9054906101000a900473ffffffffffffffffffffffffffffffffffffffff16836002015f9054906101000a900473ffffffffffffffffffffffffffffffffffffffff16604051611f3d929190612c73565b60405180910390a25050565b6040518061016001604052805f81526020015f73ffffffffffffffffffffffffffffffffffffffff1681526020015f73ffffffffffffffffffffffffffffffffffffffff1681526020015f81526020015f81526020015f151581526020015f151581526020015f151581526020015f73ffffffffffffffffffffffffffffffffffffffff1681526020015f151581526020015f81525090565b5f604051905090565b5f80fd5b5f80fd5b5f80fd5b5f80fd5b5f601f19601f8301169050919050565b7f4e487b71000000000000000000000000000000000000000000000000000000005f52604160045260245ffd5b61204182611ffb565b810181811067ffffffffffffffff821117156120605761205f61200b565b5b80604052505050565b5f612072611fe2565b905061207e8282612038565b919050565b5f67ffffffffffffffff82111561209d5761209c61200b565b5b6120a682611ffb565b9050602081019050919050565b828183375f83830152505050565b5f6120d36120ce84612083565b612069565b9050828152602081018484840111156120ef576120ee611ff7565b5b6120fa8482856120b3565b509392505050565b5f82601f83011261211657612115611ff3565b5b81356121268482602086016120c1565b91505092915050565b5f819050919050565b6121418161212f565b811461214b575f80fd5b50565b5f8135905061215c81612138565b92915050565b6004811061216e575f80fd5b50565b5f8135905061217f81612162565b92915050565b5f805f806080858703121561219d5761219c611feb565b5b5f85013567ffffffffffffffff8111156121ba576121b9611fef565b5b6121c687828801612102565b94505060206121d78782880161214e565b93505060406121e887828801612171565b92505060606121f98782880161214e565b91505092959194509250565b61220e8161212f565b82525050565b5f6020820190506122275f830184612205565b92915050565b5f73ffffffffffffffffffffffffffffffffffffffff82169050919050565b5f819050919050565b5f61226f61226a6122658461222d565b61224c565b61222d565b9050919050565b5f61228082612255565b9050919050565b5f61229182612276565b9050919050565b6122a181612287565b82525050565b5f6020820190506122ba5f830184612298565b92915050565b5f8115159050919050565b6122d4816122c0565b81146122de575f80fd5b50565b5f813590506122ef816122cb565b92915050565b5f806040838503121561230b5761230a611feb565b5b5f6123188582860161214e565b9250506020612329858286016122e1565b9150509250929050565b5f6020828403121561234857612347611feb565b5b5f6123558482850161214e565b91505092915050565b5f61236882612276565b9050919050565b6123788161235e565b82525050565b5f6020820190506123915f83018461236f565b92915050565b5f6123a18261222d565b9050919050565b6123b181612397565b81146123bb575f80fd5b50565b5f813590506123cc816123a8565b92915050565b5f602082840312156123e7576123e6611feb565b5b5f6123f4848285016123be565b91505092915050565b6124068161212f565b82525050565b61241581612397565b82525050565b612424816122c0565b82525050565b61016082015f82015161243f5f8501826123fd565b506020820151612452602085018261240c565b506040820151612465604085018261240c565b50606082015161247860608501826123fd565b50608082015161248b60808501826123fd565b5060a082015161249e60a085018261241b565b5060c08201516124b160c085018261241b565b5060e08201516124c460e085018261241b565b506101008201516124d961010085018261240c565b506101208201516124ee61012085018261241b565b506101408201516125036101408501826123fd565b50505050565b5f6101608201905061251d5f83018461242a565b92915050565b5f61252d82612276565b9050919050565b61253d81612523565b82525050565b5f6020820190506125565f830184612534565b92915050565b61256581612397565b82525050565b612574816122c0565b82525050565b5f6101608201905061258e5f83018e612205565b61259b602083018d61255c565b6125a8604083018c61255c565b6125b5606083018b612205565b6125c2608083018a612205565b6125cf60a083018961256b565b6125dc60c083018861256b565b6125e960e083018761256b565b6125f761010083018661255c565b61260561012083018561256b565b612613610140830184612205565b9c9b505050505050505050505050565b5f6020820190506126365f83018461255c565b92915050565b5f82825260208201905092915050565b7f486f757273206d7573742062652067726561746572207468616e2030000000005f82015250565b5f612680601c8361263c565b915061268b8261264c565b602082019050919050565b5f6020820190508181035f8301526126ad81612674565b9050919050565b7f496e76616c696420646561646c696e65000000000000000000000000000000005f82015250565b5f6126e860108361263c565b91506126f3826126b4565b602082019050919050565b5f6020820190508181035f830152612715816126dc565b9050919050565b7f4e487b71000000000000000000000000000000000000000000000000000000005f52601160045260245ffd5b5f6127538261212f565b915061275e8361212f565b925082820261276c8161212f565b915082820484148315176127835761278261271c565b5b5092915050565b7f496e73756666696369656e7420636f6c6c61746572616c0000000000000000005f82015250565b5f6127be60178361263c565b91506127c98261278a565b602082019050919050565b5f6020820190508181035f8301526127eb816127b2565b9050919050565b5f8151905061280081612138565b92915050565b5f6020828403121561281b5761281a611feb565b5b5f612828848285016127f2565b91505092915050565b7f4e487b71000000000000000000000000000000000000000000000000000000005f52602160045260245ffd5b6004811061286f5761286e612831565b5b50565b5f81905061287f8261285e565b919050565b5f61288e82612872565b9050919050565b61289e81612884565b82525050565b5f6060820190506128b75f830186612895565b6128c46020830185612205565b6128d16040830184612205565b949350505050565b5f6128e38261212f565b91506128ee8361212f565b92508282019050808211156129065761290561271c565b5b92915050565b5f81519050919050565b5f5b83811015612933578082015181840152602081019050612918565b5f8484015250505050565b5f6129488261290c565b612952818561263c565b9350612962818560208601612916565b61296b81611ffb565b840191505092915050565b5f60a0820190506129895f83018861255c565b818103602083015261299b818761293e565b90506129aa6040830186612205565b6129b76060830185612205565b6129c46080830184612205565b9695505050505050565b7f416c7265616479207265736f6c766564000000000000000000000000000000005f82015250565b5f612a0260108361263c565b9150612a0d826129ce565b602082019050919050565b5f6020820190508181035f830152612a2f816129f6565b9050919050565b7f556e6465722064697370757465000000000000000000000000000000000000005f82015250565b5f612a6a600d8361263c565b9150612a7582612a36565b602082019050919050565b5f6020820190508181035f830152612a9781612a5e565b9050919050565b7f4e6f74207468652063726561746f7200000000000000000000000000000000005f82015250565b5f612ad2600f8361263c565b9150612add82612a9e565b602082019050919050565b5f6020820190508181035f830152612aff81612ac6565b9050919050565b7f4e6f742074686520686f6c6465720000000000000000000000000000000000005f82015250565b5f612b3a600e8361263c565b9150612b4582612b06565b602082019050919050565b5f6020820190508181035f830152612b6781612b2e565b9050919050565b7f4f6e6c792061646d696e000000000000000000000000000000000000000000005f82015250565b5f612ba2600a8361263c565b9150612bad82612b6e565b602082019050919050565b5f6020820190508181035f830152612bcf81612b96565b9050919050565b7f4e6f2064697370757465000000000000000000000000000000000000000000005f82015250565b5f612c0a600a8361263c565b9150612c1582612bd6565b602082019050919050565b5f6020820190508181035f830152612c3781612bfe565b9050919050565b5f606082019050612c515f83018661255c565b612c5e602083018561256b565b612c6b6040830184612205565b949350505050565b5f604082019050612c865f83018561255c565b612c93602083018461255c565b9392505050565b7f494f5520646f65736e27742065786973740000000000000000000000000000005f82015250565b5f612cce60118361263c565b9150612cd982612c9a565b602082019050919050565b5f6020820190508181035f830152612cfb81612cc2565b9050919050565b7f416c7265616479206163636570746564000000000000000000000000000000005f82015250565b5f612d3660108361263c565b9150612d4182612d02565b602082019050919050565b5f6020820190508181035f830152612d6381612d2a565b9050919050565b7f4d757374206d617463682063726561746f72277320636f6c6c61746572616c005f82015250565b5f612d9e601f8361263c565b9150612da982612d6a565b602082019050919050565b5f6020820190508181035f830152612dcb81612d92565b9050919050565b5f604082019050612de55f830185612205565b612df2602083018461255c565b9392505050565b7f416c7265616479206469737075746564000000000000000000000000000000005f82015250565b5f612e2d60108361263c565b9150612e3882612df9565b602082019050919050565b5f6020820190508181035f830152612e5a81612e21565b9050919050565b7f4e6f7420696e766f6c76656420696e207468697320494f5500000000000000005f82015250565b5f612e9560188361263c565b9150612ea082612e61565b602082019050919050565b5f6020820190508181035f830152612ec281612e89565b905091905056fea26469706673582212209ec50ea5d12cd7645800b91a0fcb62be2fe38b19bb069856e8ecbeb975e4708a64736f6c63430008140033",
  "linkReferences": {},
  "deployedLinkReferences": {},
  "immutableReferences": {},
  "inputSourceName": "project/contracts/TimeBankV2.sol",
  "buildInfoId": "solc-0_8_20-d60fa8448ded3bf2aab8fd2e5f20d72872de1418"
}