{
  "_format": "hh3-artifact-1",
  "contractName": "SkillRegistry",
  "sourceName": "contracts/SkillRegistry.sol",
  "abi": [
    {
      "inputs": [],
      "stateMutability": "nonpayable",
      "type": "constructor"
    },
    {
      "anonymous": false,
      "inputs": [
        {
          "indexed": false,
          "internalType": "enum SkillRegistry.SkillCategory",
          "name": "category",
          "type": "uint8"
        },
        {
          "indexed": false,
          "internalType": "uint256",
          "name": "points",
          "type": "uint256"
        }
      ],
      "name": "SkillPointsUpdated",
      "type": "event"
    },
    {
      "inputs": [
        {
          "internalType": "enum SkillRegistry.SkillCategory",
          "name": "category",
          "type": "uint8"
        },
        {
          "internalType": "uint256",
          "name": "numHours",
          "type": "uint256"
        },
        {
          "internalType": "uint256",
          "name": "reputationMultiplier",
          "type": "uint256"
        }
      ],
      "name": "calculateSkillPoints",
      "outputs": [
        {
          "internalType": "uint256",
          "name": "",
          "type": "uint256"
        }
      ],
      "stateMutability": "view",
      "type": "function"
    },
    {
      "inputs": [
        {
          "internalType": "enum SkillRegistry.SkillCategory",
          "name": "category",
          "type": "uint8"
        }
      ],
      "name": "getPointsPerHour",
      "outputs": [
        {
          "internalType": "uint256",
          "name": "",
          "type": "uint256"
        }
      ],
      "stateMutability": "view",
      "type": "function"
    },
    {
      "inputs": [
        {
          "internalType": "enum SkillRegistry.SkillCategory",
          "name": "",
          "type": "uint8"
        }
      ],
      "name": "pointsPerHour",
      "outputs": [
        {
          "internalType": "uint256",
          "name": "",
          "type": "uint256"
        }
      ],
      "stateMutability": "view",
      "type": "function"
    },
    {
      "inputs": [
        {
          "internalType": "address",
          "name": "",
          "type": "address"
        },
        {
          "internalType": "enum SkillRegistry.SkillCategory",
          "name": "",
          "type": "uint8"
        }
      ],
      "name": "userSkillMultiplier",
      "outputs": [
        {
          "internalType": "uint256",
          "name": "",
          "type": "uint256"
        }
      ],
      "stateMutability": "view",
      "type": "function"
    }
  ],
  "bytecode": "0x608060405234801561000f575f80fd5b50600a5f80806003811115610027576100266100ff565b5b6003811115610039576100386100ff565b5b81526020019081526020015f208190555060145f8060016003811115610062576100616100ff565b5b6003811115610074576100736100ff565b5b81526020019081526020015f2081905550601e5f806002600381111561009d5761009c6100ff565b5b60038111156100af576100ae6100ff565b5b81526020019081526020015f208190555060325f806003808111156100d7576100d66100ff565b5b60038111156100e9576100e86100ff565b5b81526020019081526020015f208190555061012c565b7f4e487b71000000000000000000000000000000000000000000000000000000005f52602160045260245ffd5b6104a8806101395f395ff3fe608060405234801561000f575f80fd5b506004361061004a575f3560e01c8063832c3bbf1461004e578063cf8c3f861461007e578063e53084ca146100ae578063f9e0020c146100de575b5f80fd5b61006860048036038101906100639190610266565b61010e565b60405161007591906102bc565b60405180910390f35b610098600480360381019061009391906102d5565b61012e565b6040516100a591906102bc565b60405180910390f35b6100c860048036038101906100c391906102d5565b610142565b6040516100d591906102bc565b60405180910390f35b6100f860048036038101906100f3919061032a565b61017f565b60405161010591906102bc565b60405180910390f35b6001602052815f5260405f20602052805f5260405f205f91509150505481565b5f602052805f5260405f205f915090505481565b5f805f8360038111156101585761015761037a565b5b600381111561016a5761016961037a565b5b81526020019081526020015f20549050919050565b5f80835f808760038111156101975761019661037a565b5b60038111156101a9576101a861037a565b5b81526020019081526020015f20546101c191906103d4565b9050606483826101d191906103d4565b6101db9190610442565b9150509392505050565b5f80fd5b5f73ffffffffffffffffffffffffffffffffffffffff82169050919050565b5f610212826101e9565b9050919050565b61022281610208565b811461022c575f80fd5b50565b5f8135905061023d81610219565b92915050565b6004811061024f575f80fd5b50565b5f8135905061026081610243565b92915050565b5f806040838503121561027c5761027b6101e5565b5b5f6102898582860161022f565b925050602061029a85828601610252565b9150509250929050565b5f819050919050565b6102b6816102a4565b82525050565b5f6020820190506102cf5f8301846102ad565b92915050565b5f602082840312156102ea576102e96101e5565b5b5f6102f784828501610252565b91505092915050565b610309816102a4565b8114610313575f80fd5b50565b5f8135905061032481610300565b92915050565b5f805f60608486031215610341576103406101e5565b5b5f61034e86828701610252565b935050602061035f86828701610316565b925050604061037086828701610316565b9150509250925092565b7f4e487b71000000000000000000000000000000000000000000000000000000005f52602160045260245ffd5b7f4e487b71000000000000000000000000000000000000000000000000000000005f52601160045260245ffd5b5f6103de826102a4565b91506103e9836102a4565b92508282026103f7816102a4565b9150828204841483151761040e5761040d6103a7565b5b5092915050565b7f4e487b71000000000000000000000000000000000000000000000000000000005f52601260045260245ffd5b5f61044c826102a4565b9150610457836102a4565b92508261046757610466610415565b5b82820490509291505056fea26469706673582212207211e8a5c8042b773b1b9c71f22eddcf40af37d77c240b258a65330827f733a364736f6c63430008140033",
  "linkReferences": {},
  "deployedLinkReferences": {},
  "immutableReferences": {},
  "inputSourceName": "project/contracts/SkillRegistry.sol",
  "buildInfoId": "solc-0_8_20-5d2fc7e6089290aa2525ec2c6010486c72ff335c"
}