{
  "_format": "hh3-artifact-1",
  "contractName": "IOUToken",
  "sourceName": "contracts/IOUToken.sol",
  "abi": [
    {
      "inputs": [],
      "stateMutability": "nonpayable",
      "type": "constructor"
    },
    {
      "inputs": [
        {
          "internalType": "address",
          "name": "sender",
          "type": "address"
        },
        {
          "internalType": "uint256",
          "name": "tokenId",
          "type": "uint256"
        },
        {
          "internalType": "address",
          "name": "owner",
          "type": "address"
        }
      ],
      "name": "ERC721IncorrectOwner",
      "type": "error"
    },
    {
      "inputs": [
        {
          "internalType": "address",
          "name": "operator",
          "type": "address"
        },
        {
          "internalType": "uint256",
          "name": "tokenId",
          "type": "uint256"
        }
      ],
      "name": "ERC721InsufficientApproval",
      "type": "error"
    },
    {
      "inputs": [
        {
          "internalType": "address",
          "name": "approver",
          "type": "address"
        }
      ],
      "name": "ERC721InvalidApprover",
      "type": "error"
    },
    {
      "inputs": [
        {
          "internalType": "address",
          "name": "operator",
          "type": "address"
        }
      ],
      "name": "ERC721InvalidOperator",
      "type": "error"
    },
    {
      "inputs": [
        {
          "internalType": "address",
          "name": "owner",
          "type": "address"
        }
      ],
      "name": "ERC721InvalidOwner",
      "type": "error"
    },
    {
      "inputs": [
        {
          "internalType": "address",
          "name": "receiver",
          "type": "address"
        }
      ],
      "name": "ERC721InvalidReceiver",
      "type": "error"
    },
    {
      "inputs": [
        {
          "internalType": "address",
          "name": "sender",
          "type": "address"
        }
      ],
      "name": "ERC721InvalidSender",
      "type": "error"
    },
    {
      "inputs": [
        {
          "internalType": "uint256",
          "name": "tokenId",
          "type": "uint256"
        }
      ],
      "name": "ERC721NonexistentToken",
      "type": "error"
    },
    {
      "inputs": [
        {
          "internalType": "address",
          "name": "owner",
          "type": "address"
        }
      ],
      "name": "OwnableInvalidOwner",
      "type": "error"
    },
    {
      "inputs": [
        {
          "internalType": "address",
          "name": "account",
          "type": "address"
        }
      ],
      "name": "OwnableUnauthorizedAccount",
      "type": "error"
    },
    {
      "anonymous": false,
      "inputs": [
        {
          "indexed": true,
          "internalType": "address",
          "name": "owner",
          "type": "address"
        },
        {
          "indexed": true,
          "internalType": "address",
          "name": "approved",
          "type": "address"
        },
        {
          "indexed": true,
          "internalType": "uint256",
          "name": "tokenId",
          "type": "uint256"
        }
      ],
      "name": "Approval",
      "type": "event"
    },
    {
      "anonymous": false,
      "inputs": [
        {
          "indexed": true,
          "internalType": "address",
          "name": "owner",
          "type": "address"
        },
        {
          "indexed": true,
          "internalType": "address",
          "name": "operator",
          "type": "address"
        },
        {
          "indexed": false,
          "internalType": "bool",
          "name": "approved",
          "type": "bool"
        }
      ],
      "name": "ApprovalForAll",
      "type": "event"
    },
    {
      "anonymous": false,
      "inputs": [
        {
          "indexed": false,
          "internalType": "uint256",
          "name": "_fromTokenId",
          "type": "uint256"
        },
        {
          "indexed": false,
          "internalType": "uint256",
          "name": "_toTokenId",
          "type": "uint256"
        }
      ],
      "name": "BatchMetadataUpdate",
      "type": "event"
    },
    {
      "anonymous": false,
      "inputs": [
        {
          "indexed": true,
          "internalType": "uint256",
          "name": "tokenId",
          "type": "uint256"
        }
      ],
      "name": "IOUCompleted",
      "type": "event"
    },
    {
      "anonymous": false,
      "inputs": [
        {
          "indexed": true,
          "internalType": "uint256",
          "name": "tokenId",
          "type": "uint256"
        },
        {
          "indexed": true,
          "internalType": "address",
          "name": "creator",
          "type": "address"
        },
        {
          "indexed": false,
          "internalType": "string",
          "name": "workDescription",
          "type": "string"
        },
        {
          "indexed": false,
          "internalType": "uint256",
          "name": "skillPoints",
          "type": "uint256"
        },
        {
          "indexed": false,
          "internalType": "uint256",
          "name": "deadline",
          "type": "uint256"
        }
      ],
      "name": "IOUCreated",
      "type": "event"
    },
    {
      "anonymous": false,
      "inputs": [
        {
          "indexed": true,
          "internalType": "uint256",
          "name": "tokenId",
          "type": "uint256"
        },
        {
          "indexed": true,
          "internalType": "address",
          "name": "redeemer",
          "type": "address"
        }
      ],
      "name": "IOURedeemed",
      "type": "event"
    },
    {
      "anonymous": false,
      "inputs": [
        {
          "indexed": false,
          "internalType": "uint256",
          "name": "_tokenId",
          "type": "uint256"
        }
      ],
      "name": "MetadataUpdate",
      "type": "event"
    },
    {
      "anonymous": false,
      "inputs": [
        {
          "indexed": true,
          "internalType": "address",
          "name": "previousOwner",
          "type": "address"
        },
        {
          "indexed": true,
          "internalType": "address",
          "name": "newOwner",
          "type": "address"
        }
      ],
      "name": "OwnershipTransferred",
      "type": "event"
    },
    {
      "anonymous": false,
      "inputs": [
        {
          "indexed": true,
          "internalType": "address",
          "name": "from",
          "type": "address"
        },
        {
          "indexed": true,
          "internalType": "address",
          "name": "to",
          "type": "address"
        },
        {
          "indexed": true,
          "internalType": "uint256",
          "name": "tokenId",
          "type": "uint256"
        }
      ],
      "name": "Transfer",
      "type": "event"
    },
    {
      "inputs": [
        {
          "internalType": "address",
          "name": "to",
          "type": "address"
        },
        {
          "internalType": "uint256",
          "name": "tokenId",
          "type": "uint256"
        }
      ],
      "name": "approve",
      "outputs": [],
      "stateMutability": "nonpayable",
      "type": "function"
    },
    {
      "inputs": [
        {
          "internalType": "address",
          "name": "owner",
          "type": "address"
        }
      ],
      "name": "balanceOf",
      "outputs": [
        {
          "internalType": "uint256",
          "name": "",
          "type": "uint256"
        }
      ],
      "stateMutability": "view",
      "type": "function"
    },
    {
      "inputs": [
        {
          "internalType": "uint256",
          "name": "tokenId",
          "type": "uint256"
        }
      ],
      "name": "getApproved",
      "outputs": [
        {
          "internalType": "address",
          "name": "",
          "type": "address"
        }
      ],
      "stateMutability": "view",
      "type": "function"
    },
    {
      "inputs": [
        {
          "internalType": "uint256",
          "name": "tokenId",
          "type": "uint256"
        }
      ],
      "name": "getIOU",
      "outputs": [
        {
          "components": [
            {
              "internalType": "uint256",
              "name": "id",
              "type": "uint256"
            },
            {
              "internalType": "address",
              "name": "creator",
              "type": "address"
            },
            {
              "internalType": "address",
              "name": "holder",
              "type": "address"
            },
            {
              "internalType": "string",
              "name": "workDescription",
              "type": "string"
            },
            {
              "internalType": "uint256",
              "name": "skillPoints",
              "type": "uint256"
            },
            {
              "internalType": "uint256",
              "name": "deadline",
              "type": "uint256"
            },
            {
              "internalType": "uint256",
              "name": "collateral",
              "type": "uint256"
            },
            {
              "internalType": "bool",
              "name": "redeemed",
              "type": "bool"
            },
            {
              "internalType": "bool",
              "name": "completed",
              "type": "bool"
            },
            {
              "internalType": "uint256",
              "name": "createdAt",
              "type": "uint256"
            }
          ],
          "internalType": "struct IOUToken.IOU",
          "name": "",
          "type": "tuple"
        }
      ],
      "stateMutability": "view",
      "type": "function"
    },
    {
      "inputs": [
        {
          "internalType": "address",
          "name": "creator",
          "type": "address"
        }
      ],
      "name": "getIOUsByCreator",
      "outputs": [
        {
          "internalType": "uint256[]",
          "name": "",
          "type": "uint256[]"
        }
      ],
      "stateMutability": "view",
      "type": "function"
    },
    {
      "inputs": [
        {
          "internalType": "address",
          "name": "holder",
          "type": "address"
        }
      ],
      "name": "getIOUsByHolder",
      "outputs": [
        {
          "internalType": "uint256[]",
          "name": "",
          "type": "uint256[]"
        }
      ],
      "stateMutability": "view",
      "type": "function"
    },
    {
      "inputs": [],
      "name": "getTotalSupply",
      "outputs": [
        {
          "internalType": "uint256",
          "name": "",
          "type": "uint256"
        }
      ],
      "stateMutability": "view",
      "type": "function"
    },
    {
      "inputs": [
        {
          "internalType": "uint256",
          "name": "",
          "type": "uint256"
        }
      ],
      "name": "ious",
      "outputs": [
        {
          "internalType": "uint256",
          "name": "id",
          "type": "uint256"
        },
        {
          "internalType": "address",
          "name": "creator",
          "type": "address"
        },
        {
          "internalType": "address",
          "name": "holder",
          "type": "address"
        },
        {
          "internalType": "string",
          "name": "workDescription",
          "type": "string"
        },
        {
          "internalType": "uint256",
          "name": "skillPoints",
          "type": "uint256"
        },
        {
          "internalType": "uint256",
          "name": "deadline",
          "type": "uint256"
        },
        {
          "internalType": "uint256",
          "name": "collateral",
          "type": "uint256"
        },
        {
          "internalType": "bool",
          "name": "redeemed",
          "type": "bool"
        },
        {
          "internalType": "bool",
          "name": "completed",
          "type": "bool"
        },
        {
          "internalType": "uint256",
          "name": "createdAt",
          "type": "uint256"
        }
      ],
      "stateMutability": "view",
      "type": "function"
    },
    {
      "inputs": [
        {
          "internalType": "address",
          "name": "owner",
          "type": "address"
        },
        {
          "internalType": "address",
          "name": "operator",
          "type": "address"
        }
      ],
      "name": "isApprovedForAll",
      "outputs": [
        {
          "internalType": "bool",
          "name": "",
          "type": "bool"
        }
      ],
      "stateMutability": "view",
      "type": "function"
    },
    {
      "inputs": [
        {
          "internalType": "uint256",
          "name": "tokenId",
          "type": "uint256"
        }
      ],
      "name": "markCompleted",
      "outputs": [],
      "stateMutability": "nonpayable",
      "type": "function"
    },
    {
      "inputs": [
        {
          "internalType": "uint256",
          "name": "tokenId",
          "type": "uint256"
        }
      ],
      "name": "markRedeemed",
      "outputs": [],
      "stateMutability": "nonpayable",
      "type": "function"
    },
    {
      "inputs": [
        {
          "internalType": "address",
          "name": "creator",
          "type": "address"
        },
        {
          "internalType": "string",
          "name": "workDescription",
          "type": "string"
        },
        {
          "internalType": "uint256",
          "name": "skillPoints",
          "type": "uint256"
        },
        {
          "internalType": "uint256",
          "name": "deadline",
          "type": "uint256"
        },
        {
          "internalType": "uint256",
          "name": "collateral",
          "type": "uint256"
        }
      ],
      "name": "mintIOU",
      "outputs": [
        {
          "internalType": "uint256",
          "name": "",
          "type": "uint256"
        }
      ],
      "stateMutability": "nonpayable",
      "type": "function"
    },
    {
      "inputs": [],
      "name": "name",
      "outputs": [
        {
          "internalType": "string",
          "name": "",
          "type": "string"
        }
      ],
      "stateMutability": "view",
      "type": "function"
    },
    {
      "inputs": [],
      "name": "owner",
      "outputs": [
        {
          "internalType": "address",
          "name": "",
          "type": "address"
        }
      ],
      "stateMutability": "view",
      "type": "function"
    },
    {
      "inputs": [
        {
          "internalType": "uint256",
          "name": "tokenId",
          "type": "uint256"
        }
      ],
      "name": "ownerOf",
      "outputs": [
        {
          "internalType": "address",
          "name": "",
          "type": "address"
        }
      ],
      "stateMutability": "view",
      "type": "function"
    },
    {
      "inputs": [],
      "name": "renounceOwnership",
      "outputs": [],
      "stateMutability": "nonpayable",
      "type": "function"
    },
    {
      "inputs": [
        {
          "internalType": "address",
          "name": "from",
          "type": "address"
        },
        {
          "internalType": "address",
          "name": "to",
          "type": "address"
        },
        {
          "internalType": "uint256",
          "name": "tokenId",
          "type": "uint256"
        }
      ],
      "name": "safeTransferFrom",
      "outputs": [],
      "stateMutability": "nonpayable",
      "type": "function"
    },
    {
      "inputs": [
        {
          "internalType": "address",
          "name": "from",
          "type": "address"
        },
        {
          "internalType": "address",
          "name": "to",
          "type": "address"
        },
        {
          "internalType": "uint256",
          "name": "tokenId",
          "type": "uint256"
        },
        {
          "internalType": "bytes",
          "name": "data",
          "type": "bytes"
        }
      ],
      "name": "safeTransferFrom",
      "outputs": [],
      "stateMutability": "nonpayable",
      "type": "function"
    },
    {
      "inputs": [
        {
          "internalType": "address",
          "name": "operator",
          "type": "address"
        },
        {
          "internalType": "bool",
          "name": "approved",
          "type": "bool"
        }
      ],
      "name": "setApprovalForAll",
      "outputs": [],
      "stateMutability": "nonpayable",
      "type": "function"
    },
    {
      "inputs": [
        {
          "internalType": "address",
          "name": "_timeBankContract",
          "type": "address"
        }
      ],
      "name": "setTimeBankContract",
      "outputs": [],
      "stateMutability": "nonpayable",
      "type": "function"
    },
    {
      "inputs": [
        {
          "internalType": "bytes4",
          "name": "interfaceId",
          "type": "bytes4"
        }
      ],
      "name": "supportsInterface",
      "outputs": [
        {
          "internalType": "bool",
          "name": "",
          "type": "bool"
        }
      ],
      "stateMutability": "view",
      "type": "function"
    },
    {
      "inputs": [],
      "name": "symbol",
      "outputs": [
        {
          "internalType": "string",
          "name": "",
          "type": "string"
        }
      ],
      "stateMutability": "view",
      "type": "function"
    },
    {
      "inputs": [],
      "name": "timeBankContract",
      "outputs": [
        {
          "internalType": "address",
          "name": "",
          "type": "address"
        }
      ],
      "stateMutability": "view",
      "type": "function"
    },
    {
      "inputs": [
        {
          "internalType": "uint256",
          "name": "tokenId",
          "type": "uint256"
        }
      ],
      "name": "tokenURI",
      "outputs": [
        {
          "internalType": "string",
          "name": "",
          "type": "string"
        }
      ],
      "stateMutability": "view",
      "type": "function"
    },
    {
      "inputs": [
        {
          "internalType": "address",
          "name": "from",
          "type": "address"
        },
        {
          "internalType": "address",
          "name": "to",
          "type": "address"
        },
        {
          "internalType": "uint256",
          "name": "tokenId",
          "type": "uint256"
        }
      ],
      "name": "transferFrom",
      "outputs": [],
      "stateMutability": "nonpayable",
      "type": "function"
    },
    {
      "inputs": [
        {
          "internalType": "uint256",
          "name": "tokenId",
          "type": "uint256"
        },
        {
          "internalType": "address",
          "name": "to",
          "type": "address"
        }
      ],
      "name": "transferIOU",
      "outputs": [],
      "stateMutability": "nonpayable",
      "type": "function"
    },
    {
      "inputs": [
        {
          "internalType": "address",
          "name": "newOwner",
          "type": "address"
        }
      ],
      "name": "transferOwnership",
      "outputs": [],
      "stateMutability": "nonpayable",
      "type": "function"
    }
  ],
  "bytecode": "0x608060405234801562000010575f80fd5b50336040518060400160405280600c81526020017f54696d6542616e6b20494f5500000000000000000000000000000000000000008152506040518060400160405280600381526020017f494f550000000000000000000000000000000000000000000000000000000000815250815f90816200008e919062000455565b508060019081620000a0919062000455565b5050505f73ffffffffffffffffffffffffffffffffffffffff168173ffffffffffffffffffffffffffffffffffffffff160362000116575f6040517f1e4fbdf70000000000000000000000000000000000000000000000000000000081526004016200010d91906200057c565b60405180910390fd5b62000127816200012e60201b60201c565b5062000597565b5f60075f9054906101000a900473ffffffffffffffffffffffffffffffffffffffff1690508160075f6101000a81548173ffffffffffffffffffffffffffffffffffffffff021916908373ffffffffffffffffffffffffffffffffffffffff1602179055508173ffffffffffffffffffffffffffffffffffffffff168173ffffffffffffffffffffffffffffffffffffffff167f8be0079c531659141344cd1fd0a4f28419497f9722a3daafe3b4186f6b6457e060405160405180910390a35050565b5f81519050919050565b7f4e487b71000000000000000000000000000000000000000000000000000000005f52604160045260245ffd5b7f4e487b71000000000000000000000000000000000000000000000000000000005f52602260045260245ffd5b5f60028204905060018216806200026d57607f821691505b60208210810362000283576200028262000228565b5b50919050565b5f819050815f5260205f209050919050565b5f6020601f8301049050919050565b5f82821b905092915050565b5f60088302620002e77fffffffffffffffffffffffffffffffffffffffffffffffffffffffffffffffff82620002aa565b620002f38683620002aa565b95508019841693508086168417925050509392505050565b5f819050919050565b5f819050919050565b5f6200033d6200033762000331846200030b565b62000314565b6200030b565b9050919050565b5f819050919050565b62000358836200031d565b62000370620003678262000344565b848454620002b6565b825550505050565b5f90565b6200038662000378565b620003938184846200034d565b505050565b5b81811015620003ba57620003ae5f826200037c565b60018101905062000399565b5050565b601f8211156200040957620003d38162000289565b620003de846200029b565b81016020851015620003ee578190505b62000406620003fd856200029b565b83018262000398565b50505b505050565b5f82821c905092915050565b5f6200042b5f19846008026200040e565b1980831691505092915050565b5f6200044583836200041a565b9150826002028217905092915050565b6200046082620001f1565b67ffffffffffffffff8111156200047c576200047b620001fb565b5b62000488825462000255565b62000495828285620003be565b5f60209050601f831160018114620004cb575f8415620004b6578287015190505b620004c2858262000438565b86555062000531565b601f198416620004db8662000289565b5f5b828110156200050457848901518255600182019150602085019450602081019050620004dd565b8683101562000524578489015162000520601f8916826200041a565b8355505b6001600288020188555050505b505050505050565b5f73ffffffffffffffffffffffffffffffffffffffff82169050919050565b5f620005648262000539565b9050919050565b620005768162000558565b82525050565b5f602082019050620005915f8301846200056b565b92915050565b613b6380620005a55f395ff3fe608060405234801561000f575f80fd5b50600436106101a7575f3560e01c8063715018a6116100f7578063c4e41b2211610095578063cac5c5121161006f578063cac5c512146104e4578063dd93987214610500578063e985e9c514610530578063f2fde38b14610560576101a7565b8063c4e41b2214610466578063c67d73b714610484578063c87b56dd146104b4576101a7565b80638da5cb5b116100d15780638da5cb5b146103f257806395d89b4114610410578063a22cb4651461042e578063b88d4fde1461044a576101a7565b8063715018a6146103b057806377b9337c146103ba578063861b559e146103d6576101a7565b80632049f88f1161016457806342842e0e1161013e57806342842e0e146103165780634e2e6ce4146103325780636352211e1461035057806370a0823114610380576101a7565b80632049f88f1461029a57806323b872dd146102ca57806326b5d3a4146102e6576101a7565b806301ffc9a7146101ab57806306fdde03146101db578063081812fc146101f957806308f13f8f14610229578063095ea7b3146102625780630eda936e1461027e575b5f80fd5b6101c560048036038101906101c09190612ac7565b61057c565b6040516101d29190612b0c565b60405180910390f35b6101e361058d565b6040516101f09190612baf565b60405180910390f35b610213600480360381019061020e9190612c02565b61061c565b6040516102209190612c6c565b60405180910390f35b610243600480360381019061023e9190612c02565b610637565b6040516102599a99989796959493929190612c94565b60405180910390f35b61027c60048036038101906102779190612d5f565b610764565b005b61029860048036038101906102939190612c02565b61077a565b005b6102b460048036038101906102af9190612c02565b6108af565b6040516102c19190612ee9565b60405180910390f35b6102e460048036038101906102df9190612f09565b610a7b565b005b61030060048036038101906102fb9190613085565b610b7a565b60405161030d9190613118565b60405180910390f35b610330600480360381019061032b9190612f09565b610e2e565b005b61033a610e4d565b6040516103479190612c6c565b60405180910390f35b61036a60048036038101906103659190612c02565b610e72565b6040516103779190612c6c565b60405180910390f35b61039a60048036038101906103959190613131565b610e83565b6040516103a79190613118565b60405180910390f35b6103b8610f39565b005b6103d460048036038101906103cf9190613131565b610f4c565b005b6103f060048036038101906103eb919061315c565b610f97565b005b6103fa611131565b6040516104079190612c6c565b60405180910390f35b610418611159565b6040516104259190612baf565b60405180910390f35b610448600480360381019061044391906131c4565b6111e9565b005b610464600480360381019061045f91906132a0565b6111ff565b005b61046e611224565b60405161047b9190613118565b60405180910390f35b61049e60048036038101906104999190613131565b61122d565b6040516104ab91906133c8565b60405180910390f35b6104ce60048036038101906104c99190612c02565b611385565b6040516104db9190612baf565b60405180910390f35b6104fe60048036038101906104f99190612c02565b611397565b005b61051a60048036038101906105159190613131565b611483565b60405161052791906133c8565b60405180910390f35b61054a600480360381019061054591906133e8565b611631565b6040516105579190612b0c565b60405180910390f35b61057a60048036038101906105759190613131565b6116bf565b005b5f61058682611743565b9050919050565b60605f805461059b90613453565b80601f01602080910402602001604051908101604052809291908181526020018280546105c790613453565b80156106125780601f106105e957610100808354040283529160200191610612565b820191905f5260205f20905b8154815290600101906020018083116105f557829003601f168201915b5050505050905090565b5f610626826117a3565b5061063082611829565b9050919050565b6009602052805f5260405f205f91509050805f015490806001015f9054906101000a900473ffffffffffffffffffffffffffffffffffffffff1690806002015f9054906101000a900473ffffffffffffffffffffffffffffffffffffffff16908060030180546106a690613453565b80601f01602080910402602001604051908101604052809291908181526020018280546106d290613453565b801561071d5780601f106106f45761010080835404028352916020019161071d565b820191905f5260205f20905b81548152906001019060200180831161070057829003601f168201915b505050505090806004015490806005015490806006015490806007015f9054906101000a900460ff16908060070160019054906101000a900460ff1690806008015490508a565b6107768282610771611862565b611869565b5050565b600a5f9054906101000a900473ffffffffffffffffffffffffffffffffffffffff1673ffffffffffffffffffffffffffffffffffffffff163373ffffffffffffffffffffffffffffffffffffffff1614610809576040517f08c379a0000000000000000000000000000000000000000000000000000000008152600401610800906134cd565b60405180910390fd5b600160095f8381526020019081526020015f206007015f6101000a81548160ff02191690831515021790555060095f8281526020019081526020015f206002015f9054906101000a900473ffffffffffffffffffffffffffffffffffffffff1673ffffffffffffffffffffffffffffffffffffffff16817ff0b8ccae7882796bab98f4026a2748251a3d69305a555ff0fdb74202f1121a5560405160405180910390a350565b6108b76129e7565b60095f8381526020019081526020015f20604051806101400160405290815f8201548152602001600182015f9054906101000a900473ffffffffffffffffffffffffffffffffffffffff1673ffffffffffffffffffffffffffffffffffffffff1673ffffffffffffffffffffffffffffffffffffffff168152602001600282015f9054906101000a900473ffffffffffffffffffffffffffffffffffffffff1673ffffffffffffffffffffffffffffffffffffffff1673ffffffffffffffffffffffffffffffffffffffff16815260200160038201805461099790613453565b80601f01602080910402602001604051908101604052809291908181526020018280546109c390613453565b8015610a0e5780601f106109e557610100808354040283529160200191610a0e565b820191905f5260205f20905b8154815290600101906020018083116109f157829003601f168201915b50505050508152602001600482015481526020016005820154815260200160068201548152602001600782015f9054906101000a900460ff161515151581526020016007820160019054906101000a900460ff161515151581526020016008820154815250509050919050565b5f73ffffffffffffffffffffffffffffffffffffffff168273ffffffffffffffffffffffffffffffffffffffff1603610aeb575f6040517f64a0ae92000000000000000000000000000000000000000000000000000000008152600401610ae29190612c6c565b60405180910390fd5b5f610afe8383610af9611862565b61187b565b90508373ffffffffffffffffffffffffffffffffffffffff168173ffffffffffffffffffffffffffffffffffffffff1614610b74578382826040517f64283d7b000000000000000000000000000000000000000000000000000000008152600401610b6b939291906134eb565b60405180910390fd5b50505050565b5f600a5f9054906101000a900473ffffffffffffffffffffffffffffffffffffffff1673ffffffffffffffffffffffffffffffffffffffff163373ffffffffffffffffffffffffffffffffffffffff1614610c0a576040517f08c379a0000000000000000000000000000000000000000000000000000000008152600401610c01906134cd565b60405180910390fd5b60085f815480929190610c1c9061354d565b91905055505f6008549050610c318782611a86565b6040518061014001604052808281526020018873ffffffffffffffffffffffffffffffffffffffff1681526020018873ffffffffffffffffffffffffffffffffffffffff1681526020018781526020018681526020018581526020018481526020015f151581526020015f151581526020014281525060095f8381526020019081526020015f205f820151815f01556020820151816001015f6101000a81548173ffffffffffffffffffffffffffffffffffffffff021916908373ffffffffffffffffffffffffffffffffffffffff1602179055506040820151816002015f6101000a81548173ffffffffffffffffffffffffffffffffffffffff021916908373ffffffffffffffffffffffffffffffffffffffff1602179055506060820151816003019081610d619190613731565b506080820151816004015560a0820151816005015560c0820151816006015560e0820151816007015f6101000a81548160ff0219169083151502179055506101008201518160070160016101000a81548160ff02191690831515021790555061012082015181600801559050508673ffffffffffffffffffffffffffffffffffffffff16817f8373a28fafc985639109c4e1e968e9005b9a6e77c368aa2dbde35e41896be74b888888604051610e1993929190613800565b60405180910390a38091505095945050505050565b610e4883838360405180602001604052805f8152506111ff565b505050565b600a5f9054906101000a900473ffffffffffffffffffffffffffffffffffffffff1681565b5f610e7c826117a3565b9050919050565b5f8073ffffffffffffffffffffffffffffffffffffffff168273ffffffffffffffffffffffffffffffffffffffff1603610ef4575f6040517f89c62b64000000000000000000000000000000000000000000000000000000008152600401610eeb9190612c6c565b60405180910390fd5b60035f8373ffffffffffffffffffffffffffffffffffffffff1673ffffffffffffffffffffffffffffffffffffffff1681526020019081526020015f20549050919050565b610f41611aa3565b610f4a5f611b2a565b565b610f54611aa3565b80600a5f6101000a81548173ffffffffffffffffffffffffffffffffffffffff021916908373ffffffffffffffffffffffffffffffffffffffff16021790555050565b3373ffffffffffffffffffffffffffffffffffffffff16610fb783610e72565b73ffffffffffffffffffffffffffffffffffffffff161461100d576040517f08c379a000000000000000000000000000000000000000000000000000000000815260040161100490613886565b60405180910390fd5b60095f8381526020019081526020015f206007015f9054906101000a900460ff161561106e576040517f08c379a0000000000000000000000000000000000000000000000000000000008152600401611065906138ee565b60405180910390fd5b60095f8381526020019081526020015f2060070160019054906101000a900460ff16156110d0576040517f08c379a00000000000000000000000000000000000000000000000000000000081526004016110c790613956565b60405180910390fd5b6110db338284611bed565b8060095f8481526020019081526020015f206002015f6101000a81548173ffffffffffffffffffffffffffffffffffffffff021916908373ffffffffffffffffffffffffffffffffffffffff1602179055505050565b5f60075f9054906101000a900473ffffffffffffffffffffffffffffffffffffffff16905090565b60606001805461116890613453565b80601f016020809104026020016040519081016040528092919081815260200182805461119490613453565b80156111df5780601f106111b6576101008083540402835291602001916111df565b820191905f5260205f20905b8154815290600101906020018083116111c257829003601f168201915b5050505050905090565b6111fb6111f4611862565b8383611d55565b5050565b61120a848484610a7b565b61121e611215611862565b85858585611ebe565b50505050565b5f600854905090565b60605f60085490505f80600190505b8281116112a0578473ffffffffffffffffffffffffffffffffffffffff1661126382610e72565b73ffffffffffffffffffffffffffffffffffffffff160361128d5781806112899061354d565b9250505b80806112989061354d565b91505061123c565b505f8167ffffffffffffffff8111156112bc576112bb612f61565b5b6040519080825280602002602001820160405280156112ea5781602001602082028036833780820191505090505b5090505f80600190505b848111611378578673ffffffffffffffffffffffffffffffffffffffff1661131b82610e72565b73ffffffffffffffffffffffffffffffffffffffff1603611365578083838151811061134a57611349613974565b5b60200260200101818152505081806113619061354d565b9250505b80806113709061354d565b9150506112f4565b5081945050505050919050565b60606113908261206a565b9050919050565b600a5f9054906101000a900473ffffffffffffffffffffffffffffffffffffffff1673ffffffffffffffffffffffffffffffffffffffff163373ffffffffffffffffffffffffffffffffffffffff1614611426576040517f08c379a000000000000000000000000000000000000000000000000000000000815260040161141d906134cd565b60405180910390fd5b600160095f8381526020019081526020015f2060070160016101000a81548160ff021916908315150217905550807ff70a1cbccc401cf080c13d13d50d694d859102307b97238ae83caedfd5cc2d7960405160405180910390a250565b60605f60085490505f80600190505b828111611521578473ffffffffffffffffffffffffffffffffffffffff1660095f8381526020019081526020015f206001015f9054906101000a900473ffffffffffffffffffffffffffffffffffffffff1673ffffffffffffffffffffffffffffffffffffffff160361150e57818061150a9061354d565b9250505b80806115199061354d565b915050611492565b505f8167ffffffffffffffff81111561153d5761153c612f61565b5b60405190808252806020026020018201604052801561156b5781602001602082028036833780820191505090505b5090505f80600190505b848111611624578673ffffffffffffffffffffffffffffffffffffffff1660095f8381526020019081526020015f206001015f9054906101000a900473ffffffffffffffffffffffffffffffffffffffff1673ffffffffffffffffffffffffffffffffffffffff160361161157808383815181106115f6576115f5613974565b5b602002602001018181525050818061160d9061354d565b9250505b808061161c9061354d565b915050611575565b5081945050505050919050565b5f60055f8473ffffffffffffffffffffffffffffffffffffffff1673ffffffffffffffffffffffffffffffffffffffff1681526020019081526020015f205f8373ffffffffffffffffffffffffffffffffffffffff1673ffffffffffffffffffffffffffffffffffffffff1681526020019081526020015f205f9054906101000a900460ff16905092915050565b6116c7611aa3565b5f73ffffffffffffffffffffffffffffffffffffffff168173ffffffffffffffffffffffffffffffffffffffff1603611737575f6040517f1e4fbdf700000000000000000000000000000000000000000000000000000000815260040161172e9190612c6c565b60405180910390fd5b61174081611b2a565b50565b5f634906490660e01b7bffffffffffffffffffffffffffffffffffffffffffffffffffffffff1916827bffffffffffffffffffffffffffffffffffffffffffffffffffffffff1916148061179c575061179b82612175565b5b9050919050565b5f806117ae83612256565b90505f73ffffffffffffffffffffffffffffffffffffffff168173ffffffffffffffffffffffffffffffffffffffff160361182057826040517f7e2732890000000000000000000000000000000000000000000000000000000081526004016118179190613118565b60405180910390fd5b80915050919050565b5f60045f8381526020019081526020015f205f9054906101000a900473ffffffffffffffffffffffffffffffffffffffff169050919050565b5f33905090565b611876838383600161228f565b505050565b5f8061188684612256565b90505f73ffffffffffffffffffffffffffffffffffffffff168373ffffffffffffffffffffffffffffffffffffffff16146118c7576118c681848661244e565b5b5f73ffffffffffffffffffffffffffffffffffffffff168173ffffffffffffffffffffffffffffffffffffffff1614611952576119065f855f8061228f565b600160035f8373ffffffffffffffffffffffffffffffffffffffff1673ffffffffffffffffffffffffffffffffffffffff1681526020019081526020015f205f82825403925050819055505b5f73ffffffffffffffffffffffffffffffffffffffff168573ffffffffffffffffffffffffffffffffffffffff16146119d157600160035f8773ffffffffffffffffffffffffffffffffffffffff1673ffffffffffffffffffffffffffffffffffffffff1681526020019081526020015f205f82825401925050819055505b8460025f8681526020019081526020015f205f6101000a81548173ffffffffffffffffffffffffffffffffffffffff021916908373ffffffffffffffffffffffffffffffffffffffff160217905550838573ffffffffffffffffffffffffffffffffffffffff168273ffffffffffffffffffffffffffffffffffffffff167fddf252ad1be2c89b69c2b068fc378daa952ba7f163c4a11628f55a4df523b3ef60405160405180910390a4809150509392505050565b611a9f828260405180602001604052805f815250612511565b5050565b611aab611862565b73ffffffffffffffffffffffffffffffffffffffff16611ac9611131565b73ffffffffffffffffffffffffffffffffffffffff1614611b2857611aec611862565b6040517f118cdaa7000000000000000000000000000000000000000000000000000000008152600401611b1f9190612c6c565b60405180910390fd5b565b5f60075f9054906101000a900473ffffffffffffffffffffffffffffffffffffffff1690508160075f6101000a81548173ffffffffffffffffffffffffffffffffffffffff021916908373ffffffffffffffffffffffffffffffffffffffff1602179055508173ffffffffffffffffffffffffffffffffffffffff168173ffffffffffffffffffffffffffffffffffffffff167f8be0079c531659141344cd1fd0a4f28419497f9722a3daafe3b4186f6b6457e060405160405180910390a35050565b5f73ffffffffffffffffffffffffffffffffffffffff168273ffffffffffffffffffffffffffffffffffffffff1603611c5d575f6040517f64a0ae92000000000000000000000000000000000000000000000000000000008152600401611c549190612c6c565b60405180910390fd5b5f611c6983835f61187b565b90505f73ffffffffffffffffffffffffffffffffffffffff168173ffffffffffffffffffffffffffffffffffffffff1603611cdb57816040517f7e273289000000000000000000000000000000000000000000000000000000008152600401611cd29190613118565b60405180910390fd5b8373ffffffffffffffffffffffffffffffffffffffff168173ffffffffffffffffffffffffffffffffffffffff1614611d4f578382826040517f64283d7b000000000000000000000000000000000000000000000000000000008152600401611d46939291906134eb565b60405180910390fd5b50505050565b5f73ffffffffffffffffffffffffffffffffffffffff168273ffffffffffffffffffffffffffffffffffffffff1603611dc557816040517f5b08ba18000000000000000000000000000000000000000000000000000000008152600401611dbc9190612c6c565b60405180910390fd5b8060055f8573ffffffffffffffffffffffffffffffffffffffff1673ffffffffffffffffffffffffffffffffffffffff1681526020019081526020015f205f8473ffffffffffffffffffffffffffffffffffffffff1673ffffffffffffffffffffffffffffffffffffffff1681526020019081526020015f205f6101000a81548160ff0219169083151502179055508173ffffffffffffffffffffffffffffffffffffffff168373ffffffffffffffffffffffffffffffffffffffff167f17307eab39ab6107e8899845ad3d59bd9653f200f220920489ca2b5937696c3183604051611eb19190612b0c565b60405180910390a3505050565b5f8373ffffffffffffffffffffffffffffffffffffffff163b1115612063578273ffffffffffffffffffffffffffffffffffffffff1663150b7a02868685856040518563ffffffff1660e01b8152600401611f1c94939291906139f3565b6020604051808303815f875af1925050508015611f5757506040513d601f19601f82011682018060405250810190611f549190613a51565b60015b611fd8573d805f8114611f85576040519150601f19603f3d011682016040523d82523d5f602084013e611f8a565b606091505b505f815103611fd057836040517f64a0ae92000000000000000000000000000000000000000000000000000000008152600401611fc79190612c6c565b60405180910390fd5b805160208201fd5b63150b7a0260e01b7bffffffffffffffffffffffffffffffffffffffffffffffffffffffff1916817bffffffffffffffffffffffffffffffffffffffffffffffffffffffff19161461206157836040517f64a0ae920000000000000000000000000000000000000000000000000000000081526004016120589190612c6c565b60405180910390fd5b505b5050505050565b6060612075826117a3565b505f60065f8481526020019081526020015f20805461209390613453565b80601f01602080910402602001604051908101604052809291908181526020018280546120bf90613453565b801561210a5780601f106120e15761010080835404028352916020019161210a565b820191905f5260205f20905b8154815290600101906020018083116120ed57829003601f168201915b505050505090505f61211a612534565b90505f81510361212e578192505050612170565b5f8251111561216257808260405160200161214a929190613ab6565b60405160208183030381529060405292505050612170565b61216b8461254a565b925050505b919050565b5f7f80ac58cd000000000000000000000000000000000000000000000000000000007bffffffffffffffffffffffffffffffffffffffffffffffffffffffff1916827bffffffffffffffffffffffffffffffffffffffffffffffffffffffff1916148061223f57507f5b5e139f000000000000000000000000000000000000000000000000000000007bffffffffffffffffffffffffffffffffffffffffffffffffffffffff1916827bffffffffffffffffffffffffffffffffffffffffffffffffffffffff1916145b8061224f575061224e826125b0565b5b9050919050565b5f60025f8381526020019081526020015f205f9054906101000a900473ffffffffffffffffffffffffffffffffffffffff169050919050565b80806122c757505f73ffffffffffffffffffffffffffffffffffffffff168273ffffffffffffffffffffffffffffffffffffffff1614155b156123f9575f6122d6846117a3565b90505f73ffffffffffffffffffffffffffffffffffffffff168373ffffffffffffffffffffffffffffffffffffffff161415801561234057508273ffffffffffffffffffffffffffffffffffffffff168173ffffffffffffffffffffffffffffffffffffffff1614155b801561235357506123518184611631565b155b1561239557826040517fa9fbf51f00000000000000000000000000000000000000000000000000000000815260040161238c9190612c6c565b60405180910390fd5b81156123f757838573ffffffffffffffffffffffffffffffffffffffff168273ffffffffffffffffffffffffffffffffffffffff167f8c5be1e5ebec7d5bd14f71427d1e84f3dd0314c0f7b2291e5b200ac8c7c3b92560405160405180910390a45b505b8360045f8581526020019081526020015f205f6101000a81548173ffffffffffffffffffffffffffffffffffffffff021916908373ffffffffffffffffffffffffffffffffffffffff16021790555050505050565b612459838383612619565b61250c575f73ffffffffffffffffffffffffffffffffffffffff168373ffffffffffffffffffffffffffffffffffffffff16036124cd57806040517f7e2732890000000000000000000000000000000000000000000000000000000081526004016124c49190613118565b60405180910390fd5b81816040517f177e802f000000000000000000000000000000000000000000000000000000008152600401612503929190613ad9565b60405180910390fd5b505050565b61251b83836126d9565b61252f612526611862565b5f858585611ebe565b505050565b606060405180602001604052805f815250905090565b6060612555826117a3565b505f61255f612534565b90505f81511161257d5760405180602001604052805f8152506125a8565b80612587846127cc565b604051602001612598929190613ab6565b6040516020818303038152906040525b915050919050565b5f7f01ffc9a7000000000000000000000000000000000000000000000000000000007bffffffffffffffffffffffffffffffffffffffffffffffffffffffff1916827bffffffffffffffffffffffffffffffffffffffffffffffffffffffff1916149050919050565b5f8073ffffffffffffffffffffffffffffffffffffffff168373ffffffffffffffffffffffffffffffffffffffff16141580156126d057508273ffffffffffffffffffffffffffffffffffffffff168473ffffffffffffffffffffffffffffffffffffffff16148061269157506126908484611631565b5b806126cf57508273ffffffffffffffffffffffffffffffffffffffff166126b783611829565b73ffffffffffffffffffffffffffffffffffffffff16145b5b90509392505050565b5f73ffffffffffffffffffffffffffffffffffffffff168273ffffffffffffffffffffffffffffffffffffffff1603612749575f6040517f64a0ae920000000000000000000000000000000000000000000000000000000081526004016127409190612c6c565b60405180910390fd5b5f61275583835f61187b565b90505f73ffffffffffffffffffffffffffffffffffffffff168173ffffffffffffffffffffffffffffffffffffffff16146127c7575f6040517f73c6ac6e0000000000000000000000000000000000000000000000000000000081526004016127be9190612c6c565b60405180910390fd5b505050565b60605f60016127da84612896565b0190505f8167ffffffffffffffff8111156127f8576127f7612f61565b5b6040519080825280601f01601f19166020018201604052801561282a5781602001600182028036833780820191505090505b5090505f82602083010190505b60011561288b578080600190039150507f3031323334353637383961626364656600000000000000000000000000000000600a86061a8153600a85816128805761287f613b00565b5b0494505f8503612837575b819350505050919050565b5f805f90507a184f03e93ff9f4daa797ed6e38ed64bf6a1f01000000000000000083106128f2577a184f03e93ff9f4daa797ed6e38ed64bf6a1f01000000000000000083816128e8576128e7613b00565b5b0492506040810190505b6d04ee2d6d415b85acef8100000000831061292f576d04ee2d6d415b85acef8100000000838161292557612924613b00565b5b0492506020810190505b662386f26fc10000831061295e57662386f26fc10000838161295457612953613b00565b5b0492506010810190505b6305f5e1008310612987576305f5e100838161297d5761297c613b00565b5b0492506008810190505b61271083106129ac5761271083816129a2576129a1613b00565b5b0492506004810190505b606483106129cf57606483816129c5576129c4613b00565b5b0492506002810190505b600a83106129de576001810190505b80915050919050565b6040518061014001604052805f81526020015f73ffffffffffffffffffffffffffffffffffffffff1681526020015f73ffffffffffffffffffffffffffffffffffffffff168152602001606081526020015f81526020015f81526020015f81526020015f151581526020015f151581526020015f81525090565b5f604051905090565b5f80fd5b5f80fd5b5f7fffffffff0000000000000000000000000000000000000000000000000000000082169050919050565b612aa681612a72565b8114612ab0575f80fd5b50565b5f81359050612ac181612a9d565b92915050565b5f60208284031215612adc57612adb612a6a565b5b5f612ae984828501612ab3565b91505092915050565b5f8115159050919050565b612b0681612af2565b82525050565b5f602082019050612b1f5f830184612afd565b92915050565b5f81519050919050565b5f82825260208201905092915050565b5f5b83811015612b5c578082015181840152602081019050612b41565b5f8484015250505050565b5f601f19601f8301169050919050565b5f612b8182612b25565b612b8b8185612b2f565b9350612b9b818560208601612b3f565b612ba481612b67565b840191505092915050565b5f6020820190508181035f830152612bc78184612b77565b905092915050565b5f819050919050565b612be181612bcf565b8114612beb575f80fd5b50565b5f81359050612bfc81612bd8565b92915050565b5f60208284031215612c1757612c16612a6a565b5b5f612c2484828501612bee565b91505092915050565b5f73ffffffffffffffffffffffffffffffffffffffff82169050919050565b5f612c5682612c2d565b9050919050565b612c6681612c4c565b82525050565b5f602082019050612c7f5f830184612c5d565b92915050565b612c8e81612bcf565b82525050565b5f61014082019050612ca85f83018d612c85565b612cb5602083018c612c5d565b612cc2604083018b612c5d565b8181036060830152612cd4818a612b77565b9050612ce36080830189612c85565b612cf060a0830188612c85565b612cfd60c0830187612c85565b612d0a60e0830186612afd565b612d18610100830185612afd565b612d26610120830184612c85565b9b9a5050505050505050505050565b612d3e81612c4c565b8114612d48575f80fd5b50565b5f81359050612d5981612d35565b92915050565b5f8060408385031215612d7557612d74612a6a565b5b5f612d8285828601612d4b565b9250506020612d9385828601612bee565b9150509250929050565b612da681612bcf565b82525050565b612db581612c4c565b82525050565b5f82825260208201905092915050565b5f612dd582612b25565b612ddf8185612dbb565b9350612def818560208601612b3f565b612df881612b67565b840191505092915050565b612e0c81612af2565b82525050565b5f61014083015f830151612e285f860182612d9d565b506020830151612e3b6020860182612dac565b506040830151612e4e6040860182612dac565b5060608301518482036060860152612e668282612dcb565b9150506080830151612e7b6080860182612d9d565b5060a0830151612e8e60a0860182612d9d565b5060c0830151612ea160c0860182612d9d565b5060e0830151612eb460e0860182612e03565b50610100830151612ec9610100860182612e03565b50610120830151612ede610120860182612d9d565b508091505092915050565b5f6020820190508181035f830152612f018184612e12565b905092915050565b5f805f60608486031215612f2057612f1f612a6a565b5b5f612f2d86828701612d4b565b9350506020612f3e86828701612d4b565b9250506040612f4f86828701612bee565b9150509250925092565b5f80fd5b5f80fd5b7f4e487b71000000000000000000000000000000000000000000000000000000005f52604160045260245ffd5b612f9782612b67565b810181811067ffffffffffffffff82111715612fb657612fb5612f61565b5b80604052505050565b5f612fc8612a61565b9050612fd48282612f8e565b919050565b5f67ffffffffffffffff821115612ff357612ff2612f61565b5b612ffc82612b67565b9050602081019050919050565b828183375f83830152505050565b5f61302961302484612fd9565b612fbf565b90508281526020810184848401111561304557613044612f5d565b5b613050848285613009565b509392505050565b5f82601f83011261306c5761306b612f59565b5b813561307c848260208601613017565b91505092915050565b5f805f805f60a0868803121561309e5761309d612a6a565b5b5f6130ab88828901612d4b565b955050602086013567ffffffffffffffff8111156130cc576130cb612a6e565b5b6130d888828901613058565b94505060406130e988828901612bee565b93505060606130fa88828901612bee565b925050608061310b88828901612bee565b9150509295509295909350565b5f60208201905061312b5f830184612c85565b92915050565b5f6020828403121561314657613145612a6a565b5b5f61315384828501612d4b565b91505092915050565b5f806040838503121561317257613171612a6a565b5b5f61317f85828601612bee565b925050602061319085828601612d4b565b9150509250929050565b6131a381612af2565b81146131ad575f80fd5b50565b5f813590506131be8161319a565b92915050565b5f80604083850312156131da576131d9612a6a565b5b5f6131e785828601612d4b565b92505060206131f8858286016131b0565b9150509250929050565b5f67ffffffffffffffff82111561321c5761321b612f61565b5b61322582612b67565b9050602081019050919050565b5f61324461323f84613202565b612fbf565b9050828152602081018484840111156132605761325f612f5d565b5b61326b848285613009565b509392505050565b5f82601f83011261328757613286612f59565b5b8135613297848260208601613232565b91505092915050565b5f805f80608085870312156132b8576132b7612a6a565b5b5f6132c587828801612d4b565b94505060206132d687828801612d4b565b93505060406132e787828801612bee565b925050606085013567ffffffffffffffff81111561330857613307612a6e565b5b61331487828801613273565b91505092959194509250565b5f81519050919050565b5f82825260208201905092915050565b5f819050602082019050919050565b5f6133548383612d9d565b60208301905092915050565b5f602082019050919050565b5f61337682613320565b613380818561332a565b935061338b8361333a565b805f5b838110156133bb5781516133a28882613349565b97506133ad83613360565b92505060018101905061338e565b5085935050505092915050565b5f6020820190508181035f8301526133e0818461336c565b905092915050565b5f80604083850312156133fe576133fd612a6a565b5b5f61340b85828601612d4b565b925050602061341c85828601612d4b565b9150509250929050565b7f4e487b71000000000000000000000000000000000000000000000000000000005f52602260045260245ffd5b5f600282049050600182168061346a57607f821691505b60208210810361347d5761347c613426565b5b50919050565b7f4f6e6c792054696d6542616e6b20636f6e7472616374000000000000000000005f82015250565b5f6134b7601683612b2f565b91506134c282613483565b602082019050919050565b5f6020820190508181035f8301526134e4816134ab565b9050919050565b5f6060820190506134fe5f830186612c5d565b61350b6020830185612c85565b6135186040830184612c5d565b949350505050565b7f4e487b71000000000000000000000000000000000000000000000000000000005f52601160045260245ffd5b5f61355782612bcf565b91507fffffffffffffffffffffffffffffffffffffffffffffffffffffffffffffffff820361358957613588613520565b5b600182019050919050565b5f819050815f5260205f209050919050565b5f6020601f8301049050919050565b5f82821b905092915050565b5f600883026135f07fffffffffffffffffffffffffffffffffffffffffffffffffffffffffffffffff826135b5565b6135fa86836135b5565b95508019841693508086168417925050509392505050565b5f819050919050565b5f61363561363061362b84612bcf565b613612565b612bcf565b9050919050565b5f819050919050565b61364e8361361b565b61366261365a8261363c565b8484546135c1565b825550505050565b5f90565b61367661366a565b613681818484613645565b505050565b5b818110156136a4576136995f8261366e565b600181019050613687565b5050565b601f8211156136e9576136ba81613594565b6136c3846135a6565b810160208510156136d2578190505b6136e66136de856135a6565b830182613686565b50505b505050565b5f82821c905092915050565b5f6137095f19846008026136ee565b1980831691505092915050565b5f61372183836136fa565b9150826002028217905092915050565b61373a82612b25565b67ffffffffffffffff81111561375357613752612f61565b5b61375d8254613453565b6137688282856136a8565b5f60209050601f831160018114613799575f8415613787578287015190505b6137918582613716565b8655506137f8565b601f1984166137a786613594565b5f5b828110156137ce578489015182556001820191506020850194506020810190506137a9565b868310156137eb57848901516137e7601f8916826136fa565b8355505b6001600288020188555050505b505050505050565b5f6060820190508181035f8301526138188186612b77565b90506138276020830185612c85565b6138346040830184612c85565b949350505050565b7f4e6f7420746865206f776e6572000000000000000000000000000000000000005f82015250565b5f613870600d83612b2f565b915061387b8261383c565b602082019050919050565b5f6020820190508181035f83015261389d81613864565b9050919050565b7f494f5520616c72656164792072656465656d65640000000000000000000000005f82015250565b5f6138d8601483612b2f565b91506138e3826138a4565b602082019050919050565b5f6020820190508181035f830152613905816138cc565b9050919050565b7f494f5520616c726561647920636f6d706c6574656400000000000000000000005f82015250565b5f613940601583612b2f565b915061394b8261390c565b602082019050919050565b5f6020820190508181035f83015261396d81613934565b9050919050565b7f4e487b71000000000000000000000000000000000000000000000000000000005f52603260045260245ffd5b5f81519050919050565b5f82825260208201905092915050565b5f6139c5826139a1565b6139cf81856139ab565b93506139df818560208601612b3f565b6139e881612b67565b840191505092915050565b5f608082019050613a065f830187612c5d565b613a136020830186612c5d565b613a206040830185612c85565b8181036060830152613a3281846139bb565b905095945050505050565b5f81519050613a4b81612a9d565b92915050565b5f60208284031215613a6657613a65612a6a565b5b5f613a7384828501613a3d565b91505092915050565b5f81905092915050565b5f613a9082612b25565b613a9a8185613a7c565b9350613aaa818560208601612b3f565b80840191505092915050565b5f613ac18285613a86565b9150613acd8284613a86565b91508190509392505050565b5f604082019050613aec5f830185612c5d565b613af96020830184612c85565b9392505050565b7f4e487b71000000000000000000000000000000000000000000000000000000005f52601260045260245ffdfea2646970667358221220f33f9cb0fff614af98439173440acdc90b66cbbf48e9a7ab0cddc1b80546720464736f6c63430008140033",
  "linkReferences": {},
  "deployedLinkReferences": {},
  "immutableReferences": {},
  "inputSourceName": "project/contracts/IOUToken.sol",
  "buildInfoId": "solc-0_8_20-5d2fc7e6089290aa2525ec2c6010486c72ff335c"
}