{
  "_format": "hh3-artifact-1",
  "contractName": "TimeBank",
  "sourceName": "contracts/TimeBank.sol",
  "abi": [
    {
      "inputs": [
        {
          "internalType": "address",
          "name": "_iouToken",
          "type": "address"
        },
        {
          "internalType": "address",
          "name": "_reputation",
          "type": "address"
        },
        {
          "internalType": "address",
          "name": "_skillRegistry",
          "type": "address"
        }
      ],
      "stateMutability": "nonpayable",
      "type": "constructor"
    },
    {
      "anonymous": false,
      "inputs": [
        {
          "indexed": true,
          "internalType": "uint256",
          "name": "tokenId",
          "type": "uint256"
        },
        {
          "indexed": true,
          "internalType": "address",
          "name": "creator",
          "type": "address"
        }
      ],
      "name": "DefaultReportedEvent",
      "type": "event"
    },
    {
      "anonymous": false,
      "inputs": [
        {
          "indexed": true,
          "internalType": "uint256",
          "name": "tokenId",
          "type": "uint256"
        },
        {
          "indexed": true,
          "internalType": "address",
          "name": "creator",
          "type": "address"
        },
        {
          "indexed": false,
          "internalType": "uint256",
          "name": "skillPoints",
          "type": "uint256"
        }
      ],
      "name": "IOUCreatedEvent",
      "type": "event"
    },
    {
      "anonymous": false,
      "inputs": [
        {
          "indexed": true,
          "internalType": "uint256",
          "name": "tokenId",
          "type": "uint256"
        },
        {
          "indexed": true,
          "internalType": "address",
          "name": "redeemer",
          "type": "address"
        }
      ],
      "name": "IOURedeemedEvent",
      "type": "event"
    },
    {
      "anonymous": false,
      "inputs": [
        {
          "indexed": true,
          "internalType": "uint256",
          "name": "tokenId",
          "type": "uint256"
        },
        {
          "indexed": true,
          "internalType": "address",
          "name": "creator",
          "type": "address"
        },
        {
          "indexed": true,
          "internalType": "address",
          "name": "holder",
          "type": "address"
        }
      ],
      "name": "WorkCompletedEvent",
      "type": "event"
    },
    {
      "inputs": [],
      "name": "COLLATERAL_PER_HOUR",
      "outputs": [
        {
          "internalType": "uint256",
          "name": "",
          "type": "uint256"
        }
      ],
      "stateMutability": "view",
      "type": "function"
    },
    {
      "inputs": [
        {
          "internalType": "uint256",
          "name": "tokenId",
          "type": "uint256"
        },
        {
          "internalType": "bool",
          "name": "isCreator",
          "type": "bool"
        }
      ],
      "name": "confirmCompletion",
      "outputs": [],
      "stateMutability": "nonpayable",
      "type": "function"
    },
    {
      "inputs": [
        {
          "internalType": "string",
          "name": "workDescription",
          "type": "string"
        },
        {
          "internalType": "uint256",
          "name": "numHours",
          "type": "uint256"
        },
        {
          "internalType": "enum SkillRegistry.SkillCategory",
          "name": "skillCategory",
          "type": "uint8"
        },
        {
          "internalType": "uint256",
          "name": "deadlineDays",
          "type": "uint256"
        }
      ],
      "name": "createIOU",
      "outputs": [
        {
          "internalType": "uint256",
          "name": "",
          "type": "uint256"
        }
      ],
      "stateMutability": "payable",
      "type": "function"
    },
    {
      "inputs": [],
      "name": "getContractBalance",
      "outputs": [
        {
          "internalType": "uint256",
          "name": "",
          "type": "uint256"
        }
      ],
      "stateMutability": "view",
      "type": "function"
    },
    {
      "inputs": [],
      "name": "getMarketplaceIOUs",
      "outputs": [
        {
          "internalType": "uint256[]",
          "name": "",
          "type": "uint256[]"
        }
      ],
      "stateMutability": "view",
      "type": "function"
    },
    {
      "inputs": [],
      "name": "iouToken",
      "outputs": [
        {
          "internalType": "contract IOUToken",
          "name": "",
          "type": "address"
        }
      ],
      "stateMutability": "view",
      "type": "function"
    },
    {
      "inputs": [
        {
          "internalType": "uint256",
          "name": "tokenId",
          "type": "uint256"
        }
      ],
      "name": "redeemIOU",
      "outputs": [],
      "stateMutability": "nonpayable",
      "type": "function"
    },
    {
      "inputs": [
        {
          "internalType": "uint256",
          "name": "",
          "type": "uint256"
        }
      ],
      "name": "redemptions",
      "outputs": [
        {
          "internalType": "uint256",
          "name": "tokenId",
          "type": "uint256"
        },
        {
          "internalType": "address",
          "name": "requester",
          "type": "address"
        },
        {
          "internalType": "uint256",
          "name": "requestedAt",
          "type": "uint256"
        },
        {
          "internalType": "bool",
          "name": "creatorConfirmed",
          "type": "bool"
        },
        {
          "internalType": "bool",
          "name": "holderConfirmed",
          "type": "bool"
        }
      ],
      "stateMutability": "view",
      "type": "function"
    },
    {
      "inputs": [
        {
          "internalType": "uint256",
          "name": "tokenId",
          "type": "uint256"
        }
      ],
      "name": "reportDefault",
      "outputs": [],
      "stateMutability": "nonpayable",
      "type": "function"
    },
    {
      "inputs": [],
      "name": "reputation",
      "outputs": [
        {
          "internalType": "contract Reputation",
          "name": "",
          "type": "address"
        }
      ],
      "stateMutability": "view",
      "type": "function"
    },
    {
      "inputs": [],
      "name": "skillRegistry",
      "outputs": [
        {
          "internalType": "contract SkillRegistry",
          "name": "",
          "type": "address"
        }
      ],
      "stateMutability": "view",
      "type": "function"
    },
    {
      "stateMutability": "payable",
      "type": "receive"
    }
  ],
  "bytecode": "0x608060405234801562000010575f80fd5b50604051620027e2380380620027e2833981810160405281019062000036919062000163565b825f806101000a81548173ffffffffffffffffffffffffffffffffffffffff021916908373ffffffffffffffffffffffffffffffffffffffff1602179055508160015f6101000a81548173ffffffffffffffffffffffffffffffffffffffff021916908373ffffffffffffffffffffffffffffffffffffffff1602179055508060025f6101000a81548173ffffffffffffffffffffffffffffffffffffffff021916908373ffffffffffffffffffffffffffffffffffffffff160217905550505050620001bc565b5f80fd5b5f73ffffffffffffffffffffffffffffffffffffffff82169050919050565b5f6200012d8262000102565b9050919050565b6200013f8162000121565b81146200014a575f80fd5b50565b5f815190506200015d8162000134565b92915050565b5f805f606084860312156200017d576200017c620000fe565b5b5f6200018c868287016200014d565b93505060206200019f868287016200014d565b9250506040620001b2868287016200014d565b9150509250925092565b61261880620001ca5f395ff3fe60806040526004361061009f575f3560e01c80636f9fb98a116100635780636f9fb98a14610180578063702e6c06146101aa578063797b9d1f146101d25780638e34b194146101fa578063beb6589314610224578063c52164c614610264576100a6565b80630d0ce79e146100aa5780630f23c83c146100da578063168c39e814610104578063253895a61461012c5780636924f46d14610156576100a6565b366100a657005b5f80fd5b6100c460048036038101906100bf91906117a7565b61028e565b6040516100d19190611836565b60405180910390f35b3480156100e5575f80fd5b506100ee6105d7565b6040516100fb91906118c9565b60405180910390f35b34801561010f575f80fd5b5061012a60048036038101906101259190611917565b6105fc565b005b348015610137575f80fd5b506101406108a1565b60405161014d9190611836565b60405180910390f35b348015610161575f80fd5b5061016a6108ad565b6040516101779190611a0c565b60405180910390f35b34801561018b575f80fd5b50610194610ba9565b6040516101a19190611836565b60405180910390f35b3480156101b5575f80fd5b506101d060048036038101906101cb9190611a2c565b610bb0565b005b3480156101dd575f80fd5b506101f860048036038101906101f39190611a2c565b610fdd565b005b348015610205575f80fd5b5061020e6112e8565b60405161021b9190611a77565b60405180910390f35b34801561022f575f80fd5b5061024a60048036038101906102459190611a2c565b61130b565b60405161025b959493929190611abf565b60405180910390f35b34801561026f575f80fd5b50610278611375565b6040516102859190611b30565b60405180910390f35b5f8084116102d1576040517f08c379a00000000000000000000000000000000000000000000000000000000081526004016102c890611ba3565b60405180910390fd5b5f821180156102e2575061016d8211155b610321576040517f08c379a000000000000000000000000000000000000000000000000000000000815260040161031890611c0b565b60405180910390fd5b5f678ac7230489e80000856103369190611c56565b90508034101561037b576040517f08c379a000000000000000000000000000000000000000000000000000000000815260040161037290611ce1565b60405180910390fd5b5f60015f9054906101000a900473ffffffffffffffffffffffffffffffffffffffff1673ffffffffffffffffffffffffffffffffffffffff1663b107e88c336040518263ffffffff1660e01b81526004016103d69190611cff565b602060405180830381865afa1580156103f1573d5f803e3d5ffd5b505050506040513d601f19601f820116820180604052508101906104159190611d2c565b90505f60025f9054906101000a900473ffffffffffffffffffffffffffffffffffffffff1673ffffffffffffffffffffffffffffffffffffffff1663f9e0020c8789856040518463ffffffff1660e01b815260040161047693929190611dca565b602060405180830381865afa158015610491573d5f803e3d5ffd5b505050506040513d601f19601f820116820180604052508101906104b59190611d2c565b90505f62015180866104c79190611c56565b426104d29190611dff565b90505f805f9054906101000a900473ffffffffffffffffffffffffffffffffffffffff1673ffffffffffffffffffffffffffffffffffffffff166326b5d3a4338c86868a6040518663ffffffff1660e01b8152600401610536959493929190611e9c565b6020604051808303815f875af1158015610552573d5f803e3d5ffd5b505050506040513d601f19601f820116820180604052508101906105769190611d2c565b90503373ffffffffffffffffffffffffffffffffffffffff16817f7d5d647494acda0c69e29a3736f94bf30094f94de226d26f51ac3340f532440e856040516105bf9190611836565b60405180910390a38095505050505050949350505050565b60025f9054906101000a900473ffffffffffffffffffffffffffffffffffffffff1681565b5f805f9054906101000a900473ffffffffffffffffffffffffffffffffffffffff1673ffffffffffffffffffffffffffffffffffffffff16632049f88f846040518263ffffffff1660e01b81526004016106569190611836565b5f60405180830381865afa158015610670573d5f803e3d5ffd5b505050506040513d5f823e3d601f19601f8201168201806040525081019061069891906120b7565b90508060e001516106de576040517f08c379a00000000000000000000000000000000000000000000000000000000081526004016106d590612148565b60405180910390fd5b80610100015115610724576040517f08c379a000000000000000000000000000000000000000000000000000000000815260040161071b906121b0565b60405180910390fd5b5f60035f8581526020019081526020015f20905082156107d157816020015173ffffffffffffffffffffffffffffffffffffffff163373ffffffffffffffffffffffffffffffffffffffff16146107b0576040517f08c379a00000000000000000000000000000000000000000000000000000000081526004016107a790612218565b60405180910390fd5b6001816003015f6101000a81548160ff021916908315150217905550610861565b816040015173ffffffffffffffffffffffffffffffffffffffff163373ffffffffffffffffffffffffffffffffffffffff1614610843576040517f08c379a000000000000000000000000000000000000000000000000000000000815260040161083a90612280565b60405180910390fd5b60018160030160016101000a81548160ff0219169083151502179055505b806003015f9054906101000a900460ff16801561088c57508060030160019054906101000a900460ff165b1561089b5761089a8461139a565b5b50505050565b678ac7230489e8000081565b60605f805f9054906101000a900473ffffffffffffffffffffffffffffffffffffffff1673ffffffffffffffffffffffffffffffffffffffff1663c4e41b226040518163ffffffff1660e01b8152600401602060405180830381865afa158015610919573d5f803e3d5ffd5b505050506040513d601f19601f8201168201806040525081019061093d9190611d2c565b90505f80600190505b828111610a38575f805f9054906101000a900473ffffffffffffffffffffffffffffffffffffffff1673ffffffffffffffffffffffffffffffffffffffff16632049f88f836040518263ffffffff1660e01b81526004016109a79190611836565b5f60405180830381865afa1580156109c1573d5f803e3d5ffd5b505050506040513d5f823e3d601f19601f820116820180604052508101906109e991906120b7565b90508060e00151158015610a005750806101000151155b8015610a1057508060a001514211155b15610a24578280610a209061229e565b9350505b508080610a309061229e565b915050610946565b505f8167ffffffffffffffff811115610a5457610a5361162d565b5b604051908082528060200260200182016040528015610a825781602001602082028036833780820191505090505b5090505f80600190505b848111610b9e575f805f9054906101000a900473ffffffffffffffffffffffffffffffffffffffff1673ffffffffffffffffffffffffffffffffffffffff16632049f88f836040518263ffffffff1660e01b8152600401610aed9190611836565b5f60405180830381865afa158015610b07573d5f803e3d5ffd5b505050506040513d5f823e3d601f19601f82011682018060405250810190610b2f91906120b7565b90508060e00151158015610b465750806101000151155b8015610b5657508060a001514211155b15610b8a5781848481518110610b6f57610b6e6122e5565b5b6020026020010181815250508280610b869061229e565b9350505b508080610b969061229e565b915050610a8c565b508194505050505090565b5f47905090565b3373ffffffffffffffffffffffffffffffffffffffff165f8054906101000a900473ffffffffffffffffffffffffffffffffffffffff1673ffffffffffffffffffffffffffffffffffffffff16636352211e836040518263ffffffff1660e01b8152600401610c1f9190611836565b602060405180830381865afa158015610c3a573d5f803e3d5ffd5b505050506040513d601f19601f82011682018060405250810190610c5e9190612312565b73ffffffffffffffffffffffffffffffffffffffff1614610cb4576040517f08c379a0000000000000000000000000000000000000000000000000000000008152600401610cab90612387565b60405180910390fd5b5f805f9054906101000a900473ffffffffffffffffffffffffffffffffffffffff1673ffffffffffffffffffffffffffffffffffffffff16632049f88f836040518263ffffffff1660e01b8152600401610d0e9190611836565b5f60405180830381865afa158015610d28573d5f803e3d5ffd5b505050506040513d5f823e3d601f19601f82011682018060405250810190610d5091906120b7565b90508060e0015115610d97576040517f08c379a0000000000000000000000000000000000000000000000000000000008152600401610d8e906123ef565b60405180910390fd5b80610100015115610ddd576040517f08c379a0000000000000000000000000000000000000000000000000000000008152600401610dd4906121b0565b60405180910390fd5b8060a00151421115610e24576040517f08c379a0000000000000000000000000000000000000000000000000000000008152600401610e1b90612457565b60405180910390fd5b5f8054906101000a900473ffffffffffffffffffffffffffffffffffffffff1673ffffffffffffffffffffffffffffffffffffffff16630eda936e836040518263ffffffff1660e01b8152600401610e7c9190611836565b5f604051808303815f87803b158015610e93575f80fd5b505af1158015610ea5573d5f803e3d5ffd5b505050506040518060a001604052808381526020013373ffffffffffffffffffffffffffffffffffffffff1681526020014281526020015f151581526020015f151581525060035f8481526020019081526020015f205f820151815f01556020820151816001015f6101000a81548173ffffffffffffffffffffffffffffffffffffffff021916908373ffffffffffffffffffffffffffffffffffffffff160217905550604082015181600201556060820151816003015f6101000a81548160ff02191690831515021790555060808201518160030160016101000a81548160ff0219169083151502179055509050503373ffffffffffffffffffffffffffffffffffffffff16827f8989b16d797b8a0131e5e2f89aeb8b45ff52803919edb29ca4bf7deb6b5e3b9f60405160405180910390a35050565b5f805f9054906101000a900473ffffffffffffffffffffffffffffffffffffffff1673ffffffffffffffffffffffffffffffffffffffff16632049f88f836040518263ffffffff1660e01b81526004016110379190611836565b5f60405180830381865afa158015611051573d5f803e3d5ffd5b505050506040513d5f823e3d601f19601f8201168201806040525081019061107991906120b7565b90508060e001516110bf576040517f08c379a00000000000000000000000000000000000000000000000000000000081526004016110b6906124bf565b60405180910390fd5b80610100015115611105576040517f08c379a00000000000000000000000000000000000000000000000000000000081526004016110fc906121b0565b60405180910390fd5b8060a00151421161114b576040517f08c379a000000000000000000000000000000000000000000000000000000000815260040161114290612527565b60405180910390fd5b806040015173ffffffffffffffffffffffffffffffffffffffff163373ffffffffffffffffffffffffffffffffffffffff16146111bd576040517f08c379a00000000000000000000000000000000000000000000000000000000081526004016111b49061258f565b60405180910390fd5b806040015173ffffffffffffffffffffffffffffffffffffffff166108fc8260c0015190811502906040515f60405180830381858888f19350505050158015611208573d5f803e3d5ffd5b5060015f9054906101000a900473ffffffffffffffffffffffffffffffffffffffff1673ffffffffffffffffffffffffffffffffffffffff1663ff370a4082602001515f84608001516040518463ffffffff1660e01b815260040161126f939291906125ad565b5f604051808303815f87803b158015611286575f80fd5b505af1158015611298573d5f803e3d5ffd5b50505050806020015173ffffffffffffffffffffffffffffffffffffffff16827fe168ce66ca406272d5b4d58a734585ba9d972349ba2e540dc00f2eaff3f33b8a60405160405180910390a35050565b5f8054906101000a900473ffffffffffffffffffffffffffffffffffffffff1681565b6003602052805f5260405f205f91509050805f015490806001015f9054906101000a900473ffffffffffffffffffffffffffffffffffffffff1690806002015490806003015f9054906101000a900460ff16908060030160019054906101000a900460ff16905085565b60015f9054906101000a900473ffffffffffffffffffffffffffffffffffffffff1681565b5f805f9054906101000a900473ffffffffffffffffffffffffffffffffffffffff1673ffffffffffffffffffffffffffffffffffffffff16632049f88f836040518263ffffffff1660e01b81526004016113f49190611836565b5f60405180830381865afa15801561140e573d5f803e3d5ffd5b505050506040513d5f823e3d601f19601f8201168201806040525081019061143691906120b7565b90505f8054906101000a900473ffffffffffffffffffffffffffffffffffffffff1673ffffffffffffffffffffffffffffffffffffffff1663cac5c512836040518263ffffffff1660e01b81526004016114909190611836565b5f604051808303815f87803b1580156114a7575f80fd5b505af11580156114b9573d5f803e3d5ffd5b50505050806020015173ffffffffffffffffffffffffffffffffffffffff166108fc8260c0015190811502906040515f60405180830381858888f19350505050158015611508573d5f803e3d5ffd5b5060015f9054906101000a900473ffffffffffffffffffffffffffffffffffffffff1673ffffffffffffffffffffffffffffffffffffffff1663ff370a408260200151600184608001516040518463ffffffff1660e01b8152600401611570939291906125ad565b5f604051808303815f87803b158015611587575f80fd5b505af1158015611599573d5f803e3d5ffd5b50505050806040015173ffffffffffffffffffffffffffffffffffffffff16816020015173ffffffffffffffffffffffffffffffffffffffff16837f9bf96f7fa4053837c9f47efdc902a728b83f18cf49007f6f72b4d6607e8e22c660405160405180910390a45050565b5f604051905090565b5f80fd5b5f80fd5b5f80fd5b5f80fd5b5f601f19601f8301169050919050565b7f4e487b71000000000000000000000000000000000000000000000000000000005f52604160045260245ffd5b6116638261161d565b810181811067ffffffffffffffff821117156116825761168161162d565b5b80604052505050565b5f611694611604565b90506116a0828261165a565b919050565b5f67ffffffffffffffff8211156116bf576116be61162d565b5b6116c88261161d565b9050602081019050919050565b828183375f83830152505050565b5f6116f56116f0846116a5565b61168b565b90508281526020810184848401111561171157611710611619565b5b61171c8482856116d5565b509392505050565b5f82601f83011261173857611737611615565b5b81356117488482602086016116e3565b91505092915050565b5f819050919050565b61176381611751565b811461176d575f80fd5b50565b5f8135905061177e8161175a565b92915050565b60048110611790575f80fd5b50565b5f813590506117a181611784565b92915050565b5f805f80608085870312156117bf576117be61160d565b5b5f85013567ffffffffffffffff8111156117dc576117db611611565b5b6117e887828801611724565b94505060206117f987828801611770565b935050604061180a87828801611793565b925050606061181b87828801611770565b91505092959194509250565b61183081611751565b82525050565b5f6020820190506118495f830184611827565b92915050565b5f73ffffffffffffffffffffffffffffffffffffffff82169050919050565b5f819050919050565b5f61189161188c6118878461184f565b61186e565b61184f565b9050919050565b5f6118a282611877565b9050919050565b5f6118b382611898565b9050919050565b6118c3816118a9565b82525050565b5f6020820190506118dc5f8301846118ba565b92915050565b5f8115159050919050565b6118f6816118e2565b8114611900575f80fd5b50565b5f81359050611911816118ed565b92915050565b5f806040838503121561192d5761192c61160d565b5b5f61193a85828601611770565b925050602061194b85828601611903565b9150509250929050565b5f81519050919050565b5f82825260208201905092915050565b5f819050602082019050919050565b61198781611751565b82525050565b5f611998838361197e565b60208301905092915050565b5f602082019050919050565b5f6119ba82611955565b6119c4818561195f565b93506119cf8361196f565b805f5b838110156119ff5781516119e6888261198d565b97506119f1836119a4565b9250506001810190506119d2565b5085935050505092915050565b5f6020820190508181035f830152611a2481846119b0565b905092915050565b5f60208284031215611a4157611a4061160d565b5b5f611a4e84828501611770565b91505092915050565b5f611a6182611898565b9050919050565b611a7181611a57565b82525050565b5f602082019050611a8a5f830184611a68565b92915050565b5f611a9a8261184f565b9050919050565b611aaa81611a90565b82525050565b611ab9816118e2565b82525050565b5f60a082019050611ad25f830188611827565b611adf6020830187611aa1565b611aec6040830186611827565b611af96060830185611ab0565b611b066080830184611ab0565b9695505050505050565b5f611b1a82611898565b9050919050565b611b2a81611b10565b82525050565b5f602082019050611b435f830184611b21565b92915050565b5f82825260208201905092915050565b7f486f757273206d7573742062652067726561746572207468616e2030000000005f82015250565b5f611b8d601c83611b49565b9150611b9882611b59565b602082019050919050565b5f6020820190508181035f830152611bba81611b81565b9050919050565b7f496e76616c696420646561646c696e65000000000000000000000000000000005f82015250565b5f611bf5601083611b49565b9150611c0082611bc1565b602082019050919050565b5f6020820190508181035f830152611c2281611be9565b9050919050565b7f4e487b71000000000000000000000000000000000000000000000000000000005f52601160045260245ffd5b5f611c6082611751565b9150611c6b83611751565b9250828202611c7981611751565b91508282048414831517611c9057611c8f611c29565b5b5092915050565b7f496e73756666696369656e7420636f6c6c61746572616c0000000000000000005f82015250565b5f611ccb601783611b49565b9150611cd682611c97565b602082019050919050565b5f6020820190508181035f830152611cf881611cbf565b9050919050565b5f602082019050611d125f830184611aa1565b92915050565b5f81519050611d268161175a565b92915050565b5f60208284031215611d4157611d4061160d565b5b5f611d4e84828501611d18565b91505092915050565b7f4e487b71000000000000000000000000000000000000000000000000000000005f52602160045260245ffd5b60048110611d9557611d94611d57565b5b50565b5f819050611da582611d84565b919050565b5f611db482611d98565b9050919050565b611dc481611daa565b82525050565b5f606082019050611ddd5f830186611dbb565b611dea6020830185611827565b611df76040830184611827565b949350505050565b5f611e0982611751565b9150611e1483611751565b9250828201905080821115611e2c57611e2b611c29565b5b92915050565b5f81519050919050565b5f5b83811015611e59578082015181840152602081019050611e3e565b5f8484015250505050565b5f611e6e82611e32565b611e788185611b49565b9350611e88818560208601611e3c565b611e918161161d565b840191505092915050565b5f60a082019050611eaf5f830188611aa1565b8181036020830152611ec18187611e64565b9050611ed06040830186611827565b611edd6060830185611827565b611eea6080830184611827565b9695505050505050565b5f80fd5b5f80fd5b611f0581611a90565b8114611f0f575f80fd5b50565b5f81519050611f2081611efc565b92915050565b5f611f38611f33846116a5565b61168b565b905082815260208101848484011115611f5457611f53611619565b5b611f5f848285611e3c565b509392505050565b5f82601f830112611f7b57611f7a611615565b5b8151611f8b848260208601611f26565b91505092915050565b5f81519050611fa2816118ed565b92915050565b5f6101408284031215611fbe57611fbd611ef4565b5b611fc961014061168b565b90505f611fd884828501611d18565b5f830152506020611feb84828501611f12565b6020830152506040611fff84828501611f12565b604083015250606082015167ffffffffffffffff81111561202357612022611ef8565b5b61202f84828501611f67565b606083015250608061204384828501611d18565b60808301525060a061205784828501611d18565b60a08301525060c061206b84828501611d18565b60c08301525060e061207f84828501611f94565b60e08301525061010061209484828501611f94565b610100830152506101206120aa84828501611d18565b6101208301525092915050565b5f602082840312156120cc576120cb61160d565b5b5f82015167ffffffffffffffff8111156120e9576120e8611611565b5b6120f584828501611fa8565b91505092915050565b7f494f55206e6f742072656465656d6564207965740000000000000000000000005f82015250565b5f612132601483611b49565b915061213d826120fe565b602082019050919050565b5f6020820190508181035f83015261215f81612126565b9050919050565b7f416c726561647920636f6d706c657465640000000000000000000000000000005f82015250565b5f61219a601183611b49565b91506121a582612166565b602082019050919050565b5f6020820190508181035f8301526121c78161218e565b9050919050565b7f4e6f74207468652063726561746f7200000000000000000000000000000000005f82015250565b5f612202600f83611b49565b915061220d826121ce565b602082019050919050565b5f6020820190508181035f83015261222f816121f6565b9050919050565b7f4e6f742074686520686f6c6465720000000000000000000000000000000000005f82015250565b5f61226a600e83611b49565b915061227582612236565b602082019050919050565b5f6020820190508181035f8301526122978161225e565b9050919050565b5f6122a882611751565b91507fffffffffffffffffffffffffffffffffffffffffffffffffffffffffffffffff82036122da576122d9611c29565b5b600182019050919050565b7f4e487b71000000000000000000000000000000000000000000000000000000005f52603260045260245ffd5b5f602082840312156123275761232661160d565b5b5f61233484828501611f12565b91505092915050565b7f4e6f742074686520494f5520686f6c64657200000000000000000000000000005f82015250565b5f612371601283611b49565b915061237c8261233d565b602082019050919050565b5f6020820190508181035f83015261239e81612365565b9050919050565b7f416c72656164792072656465656d6564000000000000000000000000000000005f82015250565b5f6123d9601083611b49565b91506123e4826123a5565b602082019050919050565b5f6020820190508181035f830152612406816123cd565b9050919050565b7f494f5520657870697265640000000000000000000000000000000000000000005f82015250565b5f612441600b83611b49565b915061244c8261240d565b602082019050919050565b5f6020820190508181035f83015261246e81612435565b9050919050565b7f494f55206e6f742072656465656d6564000000000000000000000000000000005f82015250565b5f6124a9601083611b49565b91506124b482612475565b602082019050919050565b5f6020820190508181035f8301526124d68161249d565b9050919050565b7f446561646c696e65206e6f7420706173736564000000000000000000000000005f82015250565b5f612511601383611b49565b915061251c826124dd565b602082019050919050565b5f6020820190508181035f83015261253e81612505565b9050919050565b7f4f6e6c7920686f6c6465722063616e207265706f7274000000000000000000005f82015250565b5f612579601683611b49565b915061258482612545565b602082019050919050565b5f6020820190508181035f8301526125a68161256d565b9050919050565b5f6060820190506125c05f830186611aa1565b6125cd6020830185611ab0565b6125da6040830184611827565b94935050505056fea26469706673582212202a27b934b1b93b186b9ec91fdcd7554b72489add62590eeb5b3ca2dd98b30c3c64736f6c63430008140033",
  "linkReferences": {},
  "deployedLinkReferences": {},
  "immutableReferences": {},
  "inputSourceName": "project/contracts/TimeBank.sol",
  "buildInfoId": "solc-0_8_20-5d2fc7e6089290aa2525ec2c6010486c72ff335c"
}